{
  "_format": "hh-sol-artifact-1",
  "contractName": "KrakenDomain",
  "sourceName": "contracts/KrakenDomain.sol",
  "abi": [
    {
      "inputs": [
        {
          "internalType": "string",
          "name": "_name",
          "type": "string"
        },
        {
          "internalType": "string",
          "name": "_symbol",
          "type": "string"
        },
        {
          "internalType": "address",
          "name": "_tldOwner",
          "type": "address"
        },
        {
          "internalType": "uint256",
          "name": "_domainPrice",
          "type": "uint256"
        },
        {
          "internalType": "bool",
          "name": "_buyingEnabled",
          "type": "bool"
        },
        {
          "internalType": "address",
          "name": "_factoryAddress",
          "type": "address"
        },
        {
          "internalType": "address",
          "name": "_metadataAddress",
          "type": "address"
        }
      ],
      "stateMutability": "nonpayable",
      "type": "constructor"
    },
    {
      "anonymous": false,
      "inputs": [
        {
          "indexed": true,
          "internalType": "address",
          "name": "owner",
          "type": "address"
        },
        {
          "indexed": true,
          "internalType": "address",
          "name": "approved",
          "type": "address"
        },
        {
          "indexed": true,
          "internalType": "uint256",
          "name": "tokenId",
          "type": "uint256"
        }
      ],
      "name": "Approval",
      "type": "event"
    },
    {
      "anonymous": false,
      "inputs": [
        {
          "indexed": true,
          "internalType": "address",
          "name": "owner",
          "type": "address"
        },
        {
          "indexed": true,
          "internalType": "address",
          "name": "operator",
          "type": "address"
        },
        {
          "indexed": false,
          "internalType": "bool",
          "name": "approved",
          "type": "bool"
        }
      ],
      "name": "ApprovalForAll",
      "type": "event"
    },
    {
      "anonymous": false,
      "inputs": [
        {
          "indexed": true,
          "internalType": "address",
          "name": "user",
          "type": "address"
        }
      ],
      "name": "DataChanged",
      "type": "event"
    },
    {
      "anonymous": false,
      "inputs": [
        {
          "indexed": true,
          "internalType": "address",
          "name": "user",
          "type": "address"
        },
        {
          "indexed": false,
          "internalType": "string",
          "name": "defaultDomain",
          "type": "string"
        }
      ],
      "name": "DefaultDomainChanged",
      "type": "event"
    },
    {
      "anonymous": false,
      "inputs": [
        {
          "indexed": true,
          "internalType": "address",
          "name": "user",
          "type": "address"
        },
        {
          "indexed": false,
          "internalType": "string",
          "name": "fullDomainName",
          "type": "string"
        }
      ],
      "name": "DomainBurned",
      "type": "event"
    },
    {
      "anonymous": false,
      "inputs": [
        {
          "indexed": true,
          "internalType": "address",
          "name": "user",
          "type": "address"
        },
        {
          "indexed": false,
          "internalType": "bool",
          "name": "domainBuyingToggle",
          "type": "bool"
        }
      ],
      "name": "DomainBuyingToggle",
      "type": "event"
    },
    {
      "anonymous": false,
      "inputs": [
        {
          "indexed": true,
          "internalType": "address",
          "name": "user",
          "type": "address"
        },
        {
          "indexed": true,
          "internalType": "address",
          "name": "owner",
          "type": "address"
        },
        {
          "indexed": false,
          "internalType": "string",
          "name": "fullDomainName",
          "type": "string"
        }
      ],
      "name": "DomainCreated",
      "type": "event"
    },
    {
      "anonymous": false,
      "inputs": [
        {
          "indexed": false,
          "internalType": "address",
          "name": "user",
          "type": "address"
        }
      ],
      "name": "MintingDisabledForever",
      "type": "event"
    },
    {
      "anonymous": false,
      "inputs": [
        {
          "indexed": true,
          "internalType": "address",
          "name": "previousOwner",
          "type": "address"
        },
        {
          "indexed": true,
          "internalType": "address",
          "name": "newOwner",
          "type": "address"
        }
      ],
      "name": "OwnershipTransferred",
      "type": "event"
    },
    {
      "anonymous": false,
      "inputs": [
        {
          "indexed": true,
          "internalType": "address",
          "name": "user",
          "type": "address"
        },
        {
          "indexed": false,
          "internalType": "uint256",
          "name": "referralFee",
          "type": "uint256"
        }
      ],
      "name": "ReferralFeeChanged",
      "type": "event"
    },
    {
      "anonymous": false,
      "inputs": [
        {
          "indexed": true,
          "internalType": "address",
          "name": "user",
          "type": "address"
        },
        {
          "indexed": false,
          "internalType": "uint256",
          "name": "tldPrice",
          "type": "uint256"
        }
      ],
      "name": "TldPriceChanged",
      "type": "event"
    },
    {
      "anonymous": false,
      "inputs": [
        {
          "indexed": true,
          "internalType": "address",
          "name": "user",
          "type": "address"
        },
        {
          "indexed": false,
          "internalType": "uint256",
          "name": "tldRoyalty",
          "type": "uint256"
        }
      ],
      "name": "TldRoyaltyChanged",
      "type": "event"
    },
    {
      "anonymous": false,
      "inputs": [
        {
          "indexed": true,
          "internalType": "address",
          "name": "from",
          "type": "address"
        },
        {
          "indexed": true,
          "internalType": "address",
          "name": "to",
          "type": "address"
        },
        {
          "indexed": true,
          "internalType": "uint256",
          "name": "tokenId",
          "type": "uint256"
        }
      ],
      "name": "Transfer",
      "type": "event"
    },
    {
      "inputs": [
        {
          "internalType": "address",
          "name": "to",
          "type": "address"
        },
        {
          "internalType": "uint256",
          "name": "tokenId",
          "type": "uint256"
        }
      ],
      "name": "approve",
      "outputs": [],
      "stateMutability": "nonpayable",
      "type": "function"
    },
    {
      "inputs": [
        {
          "internalType": "address",
          "name": "owner",
          "type": "address"
        }
      ],
      "name": "balanceOf",
      "outputs": [
        {
          "internalType": "uint256",
          "name": "",
          "type": "uint256"
        }
      ],
      "stateMutability": "view",
      "type": "function"
    },
    {
      "inputs": [
        {
          "internalType": "string",
          "name": "_domainName",
          "type": "string"
        }
      ],
      "name": "burn",
      "outputs": [],
      "stateMutability": "nonpayable",
      "type": "function"
    },
    {
      "inputs": [],
      "name": "buyingDisabledForever",
      "outputs": [
        {
          "internalType": "bool",
          "name": "",
          "type": "bool"
        }
      ],
      "stateMutability": "view",
      "type": "function"
    },
    {
      "inputs": [],
      "name": "buyingEnabled",
      "outputs": [
        {
          "internalType": "bool",
          "name": "",
          "type": "bool"
        }
      ],
      "stateMutability": "view",
      "type": "function"
    },
    {
      "inputs": [
        {
          "internalType": "address",
          "name": "_metadataAddress",
          "type": "address"
        }
      ],
      "name": "changeMetadataAddress",
      "outputs": [],
      "stateMutability": "nonpayable",
      "type": "function"
    },
    {
      "inputs": [
        {
          "internalType": "address",
          "name": "_minter",
          "type": "address"
        }
      ],
      "name": "changeMinter",
      "outputs": [],
      "stateMutability": "nonpayable",
      "type": "function"
    },
    {
      "inputs": [
        {
          "internalType": "uint256",
          "name": "_maxLength",
          "type": "uint256"
        }
      ],
      "name": "changeNameMaxLength",
      "outputs": [],
      "stateMutability": "nonpayable",
      "type": "function"
    },
    {
      "inputs": [
        {
          "internalType": "uint256",
          "name": "_price",
          "type": "uint256"
        }
      ],
      "name": "changePrice",
      "outputs": [],
      "stateMutability": "nonpayable",
      "type": "function"
    },
    {
      "inputs": [
        {
          "internalType": "address",
          "name": "",
          "type": "address"
        }
      ],
      "name": "defaultNames",
      "outputs": [
        {
          "internalType": "string",
          "name": "",
          "type": "string"
        }
      ],
      "stateMutability": "view",
      "type": "function"
    },
    {
      "inputs": [],
      "name": "disableBuyingForever",
      "outputs": [],
      "stateMutability": "nonpayable",
      "type": "function"
    },
    {
      "inputs": [
        {
          "internalType": "uint256",
          "name": "",
          "type": "uint256"
        }
      ],
      "name": "domainIdsNames",
      "outputs": [
        {
          "internalType": "string",
          "name": "",
          "type": "string"
        }
      ],
      "stateMutability": "view",
      "type": "function"
    },
    {
      "inputs": [
        {
          "internalType": "string",
          "name": "",
          "type": "string"
        }
      ],
      "name": "domains",
      "outputs": [
        {
          "internalType": "string",
          "name": "name",
          "type": "string"
        },
        {
          "internalType": "uint256",
          "name": "tokenId",
          "type": "uint256"
        },
        {
          "internalType": "address",
          "name": "holder",
          "type": "address"
        },
        {
          "internalType": "string",
          "name": "data",
          "type": "string"
        }
      ],
      "stateMutability": "view",
      "type": "function"
    },
    {
      "inputs": [
        {
          "internalType": "string",
          "name": "_domainName",
          "type": "string"
        },
        {
          "internalType": "string",
          "name": "_data",
          "type": "string"
        }
      ],
      "name": "editData",
      "outputs": [],
      "stateMutability": "nonpayable",
      "type": "function"
    },
    {
      "inputs": [
        {
          "internalType": "string",
          "name": "_domainName",
          "type": "string"
        }
      ],
      "name": "editDefaultDomain",
      "outputs": [],
      "stateMutability": "nonpayable",
      "type": "function"
    },
    {
      "inputs": [],
      "name": "factoryAddress",
      "outputs": [
        {
          "internalType": "address",
          "name": "",
          "type": "address"
        }
      ],
      "stateMutability": "view",
      "type": "function"
    },
    {
      "inputs": [],
      "name": "freezeMetadata",
      "outputs": [],
      "stateMutability": "nonpayable",
      "type": "function"
    },
    {
      "inputs": [
        {
          "internalType": "uint256",
          "name": "tokenId",
          "type": "uint256"
        }
      ],
      "name": "getApproved",
      "outputs": [
        {
          "internalType": "address",
          "name": "",
          "type": "address"
        }
      ],
      "stateMutability": "view",
      "type": "function"
    },
    {
      "inputs": [
        {
          "internalType": "string",
          "name": "_domainName",
          "type": "string"
        }
      ],
      "name": "getDomainData",
      "outputs": [
        {
          "internalType": "string",
          "name": "",
          "type": "string"
        }
      ],
      "stateMutability": "view",
      "type": "function"
    },
    {
      "inputs": [
        {
          "internalType": "string",
          "name": "_domainName",
          "type": "string"
        }
      ],
      "name": "getDomainHolder",
      "outputs": [
        {
          "internalType": "address",
          "name": "",
          "type": "address"
        }
      ],
      "stateMutability": "view",
      "type": "function"
    },
    {
      "inputs": [
        {
          "internalType": "string",
          "name": "_domainName",
          "type": "string"
        }
      ],
      "name": "getDomainTokenId",
      "outputs": [
        {
          "internalType": "uint256",
          "name": "",
          "type": "uint256"
        }
      ],
      "stateMutability": "view",
      "type": "function"
    },
    {
      "inputs": [],
      "name": "getOwner",
      "outputs": [
        {
          "internalType": "address",
          "name": "",
          "type": "address"
        }
      ],
      "stateMutability": "view",
      "type": "function"
    },
    {
      "inputs": [],
      "name": "idCounter",
      "outputs": [
        {
          "internalType": "uint256",
          "name": "",
          "type": "uint256"
        }
      ],
      "stateMutability": "view",
      "type": "function"
    },
    {
      "inputs": [
        {
          "internalType": "address",
          "name": "owner",
          "type": "address"
        },
        {
          "internalType": "address",
          "name": "operator",
          "type": "address"
        }
      ],
      "name": "isApprovedForAll",
      "outputs": [
        {
          "internalType": "bool",
          "name": "",
          "type": "bool"
        }
      ],
      "stateMutability": "view",
      "type": "function"
    },
    {
      "inputs": [],
      "name": "metadataAddress",
      "outputs": [
        {
          "internalType": "address",
          "name": "",
          "type": "address"
        }
      ],
      "stateMutability": "view",
      "type": "function"
    },
    {
      "inputs": [],
      "name": "metadataFrozen",
      "outputs": [
        {
          "internalType": "bool",
          "name": "",
          "type": "bool"
        }
      ],
      "stateMutability": "view",
      "type": "function"
    },
    {
      "inputs": [
        {
          "internalType": "string",
          "name": "_domainName",
          "type": "string"
        },
        {
          "internalType": "address",
          "name": "_domainHolder",
          "type": "address"
        }
      ],
      "name": "mint",
      "outputs": [
        {
          "internalType": "uint256",
          "name": "",
          "type": "uint256"
        }
      ],
      "stateMutability": "payable",
      "type": "function"
    },
    {
      "inputs": [],
      "name": "minter",
      "outputs": [
        {
          "internalType": "address",
          "name": "",
          "type": "address"
        }
      ],
      "stateMutability": "view",
      "type": "function"
    },
    {
      "inputs": [],
      "name": "name",
      "outputs": [
        {
          "internalType": "string",
          "name": "",
          "type": "string"
        }
      ],
      "stateMutability": "view",
      "type": "function"
    },
    {
      "inputs": [],
      "name": "nameMaxLength",
      "outputs": [
        {
          "internalType": "uint256",
          "name": "",
          "type": "uint256"
        }
      ],
      "stateMutability": "view",
      "type": "function"
    },
    {
      "inputs": [],
      "name": "owner",
      "outputs": [
        {
          "internalType": "address",
          "name": "",
          "type": "address"
        }
      ],
      "stateMutability": "view",
      "type": "function"
    },
    {
      "inputs": [
        {
          "internalType": "uint256",
          "name": "tokenId",
          "type": "uint256"
        }
      ],
      "name": "ownerOf",
      "outputs": [
        {
          "internalType": "address",
          "name": "",
          "type": "address"
        }
      ],
      "stateMutability": "view",
      "type": "function"
    },
    {
      "inputs": [],
      "name": "price",
      "outputs": [
        {
          "internalType": "uint256",
          "name": "",
          "type": "uint256"
        }
      ],
      "stateMutability": "view",
      "type": "function"
    },
    {
      "inputs": [],
      "name": "renounceOwnership",
      "outputs": [],
      "stateMutability": "nonpayable",
      "type": "function"
    },
    {
      "inputs": [
        {
          "internalType": "address",
          "name": "from",
          "type": "address"
        },
        {
          "internalType": "address",
          "name": "to",
          "type": "address"
        },
        {
          "internalType": "uint256",
          "name": "tokenId",
          "type": "uint256"
        }
      ],
      "name": "safeTransferFrom",
      "outputs": [],
      "stateMutability": "nonpayable",
      "type": "function"
    },
    {
      "inputs": [
        {
          "internalType": "address",
          "name": "from",
          "type": "address"
        },
        {
          "internalType": "address",
          "name": "to",
          "type": "address"
        },
        {
          "internalType": "uint256",
          "name": "tokenId",
          "type": "uint256"
        },
        {
          "internalType": "bytes",
          "name": "data",
          "type": "bytes"
        }
      ],
      "name": "safeTransferFrom",
      "outputs": [],
      "stateMutability": "nonpayable",
      "type": "function"
    },
    {
      "inputs": [
        {
          "internalType": "address",
          "name": "operator",
          "type": "address"
        },
        {
          "internalType": "bool",
          "name": "approved",
          "type": "bool"
        }
      ],
      "name": "setApprovalForAll",
      "outputs": [],
      "stateMutability": "nonpayable",
      "type": "function"
    },
    {
      "inputs": [
        {
          "internalType": "bytes4",
          "name": "interfaceId",
          "type": "bytes4"
        }
      ],
      "name": "supportsInterface",
      "outputs": [
        {
          "internalType": "bool",
          "name": "",
          "type": "bool"
        }
      ],
      "stateMutability": "view",
      "type": "function"
    },
    {
      "inputs": [],
      "name": "symbol",
      "outputs": [
        {
          "internalType": "string",
          "name": "",
          "type": "string"
        }
      ],
      "stateMutability": "view",
      "type": "function"
    },
    {
      "inputs": [],
      "name": "toggleBuyingDomains",
      "outputs": [],
      "stateMutability": "nonpayable",
      "type": "function"
    },
    {
      "inputs": [
        {
          "internalType": "uint256",
          "name": "_tokenId",
          "type": "uint256"
        }
      ],
      "name": "tokenURI",
      "outputs": [
        {
          "internalType": "string",
          "name": "",
          "type": "string"
        }
      ],
      "stateMutability": "view",
      "type": "function"
    },
    {
      "inputs": [],
      "name": "totalSupply",
      "outputs": [
        {
          "internalType": "uint256",
          "name": "",
          "type": "uint256"
        }
      ],
      "stateMutability": "view",
      "type": "function"
    },
    {
      "inputs": [
        {
          "internalType": "address",
          "name": "from",
          "type": "address"
        },
        {
          "internalType": "address",
          "name": "to",
          "type": "address"
        },
        {
          "internalType": "uint256",
          "name": "tokenId",
          "type": "uint256"
        }
      ],
      "name": "transferFrom",
      "outputs": [],
      "stateMutability": "nonpayable",
      "type": "function"
    },
    {
      "inputs": [
        {
          "internalType": "address",
          "name": "newOwner",
          "type": "address"
        }
      ],
      "name": "transferOwnership",
      "outputs": [],
      "stateMutability": "nonpayable",
      "type": "function"
    }
  ],
  "bytecode": "0x6080604052600a805462ffffff60a01b191690556001600c55608c600e553480156200002a57600080fd5b5060405162003dbd38038062003dbd8339810160408190526200004d91620003c8565b8651879087906200006690600090602085019062000238565b5080516200007c90600190602084019062000238565b50505062000099620000936200010160201b60201c565b62000105565b6001600755600d849055600a8054600880546001600160a01b038086166001600160a01b031992831617909255908516861515600160a01b02919091166001600160a81b031990921691909117179055620000f48562000157565b50505050505050620004c9565b3390565b600680546001600160a01b038381166001600160a01b0319831681179093556040519116919082907f8be0079c531659141344cd1fd0a4f28419497f9722a3daafe3b4186f6b6457e090600090a35050565b62000161620001da565b6001600160a01b038116620001cc5760405162461bcd60e51b815260206004820152602660248201527f4f776e61626c653a206e6577206f776e657220697320746865207a65726f206160448201526564647265737360d01b60648201526084015b60405180910390fd5b620001d78162000105565b50565b6006546001600160a01b03163314620002365760405162461bcd60e51b815260206004820181905260248201527f4f776e61626c653a2063616c6c6572206973206e6f7420746865206f776e65726044820152606401620001c3565b565b82805462000246906200048c565b90600052602060002090601f0160209004810192826200026a5760008555620002b5565b82601f106200028557805160ff1916838001178555620002b5565b82800160010185558215620002b5579182015b82811115620002b557825182559160200191906001019062000298565b50620002c3929150620002c7565b5090565b5b80821115620002c35760008155600101620002c8565b634e487b7160e01b600052604160045260246000fd5b600082601f8301126200030657600080fd5b81516001600160401b0380821115620003235762000323620002de565b604051601f8301601f19908116603f011681019082821181831017156200034e576200034e620002de565b816040528381526020925086838588010111156200036b57600080fd5b600091505b838210156200038f578582018301518183018401529082019062000370565b83821115620003a15760008385830101525b9695505050505050565b80516001600160a01b0381168114620003c357600080fd5b919050565b600080600080600080600060e0888a031215620003e457600080fd5b87516001600160401b0380821115620003fc57600080fd5b6200040a8b838c01620002f4565b985060208a01519150808211156200042157600080fd5b50620004308a828b01620002f4565b9650506200044160408901620003ab565b945060608801519350608088015180151581146200045e57600080fd5b92506200046e60a08901620003ab565b91506200047e60c08901620003ab565b905092959891949750929550565b600181811c90821680620004a157607f821691505b60208210811415620004c357634e487b7160e01b600052602260045260246000fd5b50919050565b6138e480620004d96000396000f3fe6080604052600436106101f75760003560e01c806301ffc9a7146101fc57806306fdde03146102315780630754617214610253578063081812fc14610280578063095ea7b3146102a057806318160ddd146102c25780631c351a9d146102e657806323b872dd146102f957806326449235146103195780632c4d4d18146103495780633a516d171461036957806342842e0e146103895780635dedf3b5146103a957806362ac7a84146103c95780636352211e146103e95780636eb3500d1461040957806370a0823114610429578063715018a6146104495780637afdfb4f1461045e578063893d20e81461047e5780638da5cb5b146104935780638ed2fe91146104a857806395d89b41146104c95780639669a962146104de578063966dae0e146104fe5780639f0346911461051e578063a035b1fe14610534578063a22cb4651461054a578063a2b40d191461056a578063b88d4fde1461058a578063ba833c4b146105aa578063bf70e90d146105ca578063bfcdd7c3146105df578063c87b56dd146105ff578063d111515d1461061f578063d2b525d314610634578063d85451ff14610654578063dafa1d2d14610675578063db6bf92014610695578063dbd843b5146106b5578063e985e9c5146106ca578063eb08ab28146106ea578063f2fde38b14610700578063fb3cc6c214610720575b600080fd5b34801561020857600080fd5b5061021c610217366004612e4a565b610741565b60405190151581526020015b60405180910390f35b34801561023d57600080fd5b50610246610793565b6040516102289190612ec6565b34801561025f57600080fd5b50600954610273906001600160a01b031681565b6040516102289190612ed9565b34801561028c57600080fd5b5061027361029b366004612eed565b610825565b3480156102ac57600080fd5b506102c06102bb366004612f1b565b61084c565b005b3480156102ce57600080fd5b506102d8600b5481565b604051908152602001610228565b6102d86102f4366004613012565b610967565b34801561030557600080fd5b506102c0610314366004613063565b610b24565b34801561032557600080fd5b506103396103343660046130a4565b610b55565b60405161022894939291906130d8565b34801561035557600080fd5b506102c0610364366004613113565b610ca6565b34801561037557600080fd5b506102c0610384366004613113565b610cd0565b34801561039557600080fd5b506102c06103a4366004613063565b610d63565b3480156103b557600080fd5b506102c06103c4366004612eed565b610d7e565b3480156103d557600080fd5b506102466103e4366004613113565b610d8b565b3480156103f557600080fd5b50610273610404366004612eed565b610e25565b34801561041557600080fd5b50600854610273906001600160a01b031681565b34801561043557600080fd5b506102d8610444366004613113565b610e5a565b34801561045557600080fd5b506102c0610ee0565b34801561046a57600080fd5b50610246610479366004613178565b610ef4565b34801561048a57600080fd5b50610273610fe6565b34801561049f57600080fd5b50610273610ff5565b3480156104b457600080fd5b50600a5461021c90600160a01b900460ff1681565b3480156104d557600080fd5b50610246611004565b3480156104ea57600080fd5b506102d86104f9366004613178565b611013565b34801561050a57600080fd5b50600a54610273906001600160a01b031681565b34801561052a57600080fd5b506102d8600e5481565b34801561054057600080fd5b506102d8600d5481565b34801561055657600080fd5b506102c06105653660046131b9565b61107d565b34801561057657600080fd5b506102c0610585366004612eed565b61108c565b34801561059657600080fd5b506102c06105a53660046131ec565b6110d1565b3480156105b657600080fd5b506102c06105c536600461326b565b611109565b3480156105d657600080fd5b506102c0611230565b3480156105eb57600080fd5b506102736105fa366004613178565b61129b565b34801561060b57600080fd5b5061024661061a366004612eed565b61130f565b34801561062b57600080fd5b506102c06113cd565b34801561064057600080fd5b5061024661064f366004612eed565b6113ea565b34801561066057600080fd5b50600a5461021c90600160a81b900460ff1681565b34801561068157600080fd5b506102c0610690366004613178565b611403565b3480156106a157600080fd5b506102c06106b0366004613178565b611631565b3480156106c157600080fd5b506102c0611756565b3480156106d657600080fd5b5061021c6106e53660046132d6565b6117b0565b3480156106f657600080fd5b506102d8600c5481565b34801561070c57600080fd5b506102c061071b366004613113565b6117de565b34801561072c57600080fd5b50600a5461021c90600160b01b900460ff1681565b60006001600160e01b031982166380ac58cd60e01b148061077257506001600160e01b03198216635b5e139f60e01b145b8061078d57506301ffc9a760e01b6001600160e01b03198316145b92915050565b6060600080546107a290613304565b80601f01602080910402602001604051908101604052809291908181526020018280546107ce90613304565b801561081b5780601f106107f05761010080835404028352916020019161081b565b820191906000526020600020905b8154815290600101906020018083116107fe57829003601f168201915b5050505050905090565b600061083082611857565b506000908152600460205260409020546001600160a01b031690565b600061085782610e25565b9050806001600160a01b0316836001600160a01b031614156108ca5760405162461bcd60e51b815260206004820152602160248201527f4552433732313a20617070726f76616c20746f2063757272656e74206f776e656044820152603960f91b60648201526084015b60405180910390fd5b336001600160a01b03821614806108e657506108e681336117b0565b6109585760405162461bcd60e51b815260206004820152603e60248201527f4552433732313a20617070726f76652063616c6c6572206973206e6f7420746f60448201527f6b656e206f776e6572206e6f7220617070726f76656420666f7220616c6c000060648201526084016108c1565b610962838361187c565b505050565b6000600260075414156109bc5760405162461bcd60e51b815260206004820152601f60248201527f5265656e7472616e637947756172643a207265656e7472616e742063616c6c0060448201526064016108c1565b6002600755600a54600160a81b900460ff1615610a1b5760405162461bcd60e51b815260206004820152601f60248201527f446f6d61696e206d696e74696e672064697361626c656420666f72657665720060448201526064016108c1565b600a54600160a01b900460ff1680610a4b5750610a36610ff5565b6001600160a01b0316336001600160a01b0316145b80610a6957506009546001600160a01b0316336001600160a01b0316145b610aaf5760405162461bcd60e51b8152602060048201526017602482015276109d5e5a5b99c8191bdb585a5b9cc8191a5cd8589b1959604a1b60448201526064016108c1565b600d54341015610af55760405162461bcd60e51b815260206004820152601160248201527056616c75652062656c6f7720707269636560781b60448201526064016108c1565b610afe346118ea565b610b18838360405180602001604052806000815250611af3565b60016007559392505050565b610b2e3382611f55565b610b4a5760405162461bcd60e51b81526004016108c19061333f565b610962838383611fb4565b8051602081830181018051600f82529282019190930120915280548190610b7b90613304565b80601f0160208091040260200160405190810160405280929190818152602001828054610ba790613304565b8015610bf45780601f10610bc957610100808354040283529160200191610bf4565b820191906000526020600020905b815481529060010190602001808311610bd757829003601f168201915b5050505060018301546002840154600385018054949592946001600160a01b03909216935090610c2390613304565b80601f0160208091040260200160405190810160405280929190818152602001828054610c4f90613304565b8015610c9c5780601f10610c7157610100808354040283529160200191610c9c565b820191906000526020600020905b815481529060010190602001808311610c7f57829003601f168201915b5050505050905084565b610cae612149565b600980546001600160a01b0319166001600160a01b0392909216919091179055565b610cd8612149565b600a54600160b01b900460ff1615610d415760405162461bcd60e51b815260206004820152602660248201527f43616e6e6f74206368616e6765206d65746164617461206164647265737320616044820152656e796d6f726560d01b60648201526084016108c1565b600880546001600160a01b0319166001600160a01b0392909216919091179055565b610962838383604051806020016040528060008152506110d1565b610d86612149565b600e55565b60116020526000908152604090208054610da490613304565b80601f0160208091040260200160405190810160405280929190818152602001828054610dd090613304565b8015610e1d5780601f10610df257610100808354040283529160200191610e1d565b820191906000526020600020905b815481529060010190602001808311610e0057829003601f168201915b505050505081565b6000818152600260205260408120546001600160a01b03168061078d5760405162461bcd60e51b81526004016108c19061338d565b60006001600160a01b038216610ec45760405162461bcd60e51b815260206004820152602960248201527f4552433732313a2061646472657373207a65726f206973206e6f7420612076616044820152683634b21037bbb732b960b91b60648201526084016108c1565b506001600160a01b031660009081526003602052604090205490565b610ee8612149565b610ef260006121a8565b565b6060600f610f3784848080601f0160208091040260200160405190810160405280939291908181526020018383808284376000920191909152506121fa92505050565b604051610f4491906133bf565b90815260200160405180910390206003018054610f6090613304565b80601f0160208091040260200160405190810160405280929190818152602001828054610f8c90613304565b8015610fd95780601f10610fae57610100808354040283529160200191610fd9565b820191906000526020600020905b815481529060010190602001808311610fbc57829003601f168201915b5050505050905092915050565b6000610ff0610ff5565b905090565b6006546001600160a01b031690565b6060600180546107a290613304565b6000600f61105684848080601f0160208091040260200160405190810160405280939291908181526020018383808284376000920191909152506121fa92505050565b60405161106391906133bf565b908152602001604051809103902060010154905092915050565b611088338383612274565b5050565b611094612149565b600d81905560405181815233907fee635c8a0d26ec216072a8c63e35b6ae1a6c900a63c37c014e4ebaac518610419060200160405180910390a250565b6110db3383611f55565b6110f75760405162461bcd60e51b81526004016108c19061333f565b6111038484848461233f565b50505050565b600061114a85858080601f0160208091040260200160405190810160405280939291908181526020018383808284376000920191909152506121fa92505050565b9050336001600160a01b0316600f8260405161116691906133bf565b908152604051908190036020019020600201546001600160a01b0316146111cd5760405162461bcd60e51b815260206004820152601b60248201527a13db9b1e48191bdb585a5b881a1bdb19195c8818d85b8819591a5d602a1b60448201526064016108c1565b8282600f836040516111df91906133bf565b908152602001604051809103902060030191906111fd929190612c76565b5060405133907f5f5a32e7aa0e6d5ba247a155a472ba8f212ee1885baaf457683f3f5dae89480190600090a25050505050565b611238612149565b600a805460ff600160a01b808304821615810260ff60a01b199093169290921792839055604051919092049091161515815233907f8e6cbfe6ffa62410f48c7f382a4560f2b634197f39f7ba9b666914af6674cfdb9060200160405180910390a2565b6000600f6112de84848080601f0160208091040260200160405190810160405280939291908181526020018383808284376000920191909152506121fa92505050565b6040516112eb91906133bf565b908152604051908190036020019020600201546001600160a01b0316905092915050565b6008546000828152601060205260409081902090516060926001600160a01b0316916348189f1291600f916113439161344a565b90815260405190819003602001902061135a610793565b856040518463ffffffff1660e01b815260040161137993929190613456565b60006040518083038186803b15801561139157600080fd5b505afa1580156113a5573d6000803e3d6000fd5b505050506040513d6000823e601f3d908101601f1916820160405261078d91908101906134f7565b6113d5612149565b600a805460ff60b01b1916600160b01b179055565b60106020526000908152604090208054610da490613304565b600061144483838080601f0160208091040260200160405190810160405280939291908181526020018383808284376000920191909152506121fa92505050565b9050336001600160a01b0316600f8260405161146091906133bf565b908152604051908190036020019020600201546001600160a01b0316146114d45760405162461bcd60e51b815260206004820152602260248201527f596f7520646f206e6f74206f776e207468652073656c656374656420646f6d6160448201526134b760f11b60648201526084016108c1565b6000600f826040516114e691906133bf565b90815260200160405180910390206001015490506010600082815260200190815260200160002060006115199190612cf6565b600f8260405161152991906133bf565b90815260405190819003602001902060006115448282612cf6565b6000600183018190556002830180546001600160a01b031916905561156d906003840190612cf6565b50508151602083012060116000336001600160a01b03166001600160a01b031681526020019081526020016000206040516115a8919061344a565b604051809103902014156115ce573360009081526011602052604081206115ce91612cf6565b6115d781612372565b600b600081546115e690613583565b90915550336001600160a01b03167fa37475cf96c0b9779814af0b62cf67583091c685221d6a2c12369240539cb9ef836040516116239190612ec6565b60405180910390a250505050565b600061167283838080601f0160208091040260200160405190810160405280939291908181526020018383808284376000920191909152506121fa92505050565b9050336001600160a01b0316600f8260405161168e91906133bf565b908152604051908190036020019020600201546001600160a01b0316146116ef5760405162461bcd60e51b81526020600482015260156024820152742cb7ba903237903737ba1037bbb7103237b6b0b4b760591b60448201526064016108c1565b336000908152601160209081526040909120825161170f92840190612d30565b50336001600160a01b03167f068caa4b2fe151c4db5ef003b9da9f85e1f84c0fa8eaf77f66a095b19998b988826040516117499190612ec6565b60405180910390a2505050565b61175e612149565b600a805460ff60a81b1916600160a81b1790557f6d74cc13fa7ed2a0177961820c3be5913f7b4cf15397d50b80357e80ec4ea78a6117993390565b6040516117a69190612ed9565b60405180910390a1565b6001600160a01b03918216600090815260056020908152604080832093909416825291909152205460ff1690565b6117e6612149565b6001600160a01b03811661184b5760405162461bcd60e51b815260206004820152602660248201527f4f776e61626c653a206e6577206f776e657220697320746865207a65726f206160448201526564647265737360d01b60648201526084016108c1565b611854816121a8565b50565b61186081612407565b6118545760405162461bcd60e51b81526004016108c19061338d565b600081815260046020526040902080546001600160a01b0319166001600160a01b03841690811790915581906118b182610e25565b6001600160a01b03167f8c5be1e5ebec7d5bd14f71427d1e84f3dd0314c0f7b2291e5b200ac8c7c3b92560405160405180910390a45050565b600a5460408051631299372d60e31b8152815160009384936001600160a01b03909116926394c9b9689260048083019392829003018186803b15801561192f57600080fd5b505afa158015611943573d6000803e3d6000fd5b505050506040513d601f19601f82011682018060405250810190611967919061359a565b9150915060008111801561197b5750603281105b15611a365760006001600160a01b038316606461199884876135c8565b6119a291906135e7565b604051600081818185875af1925050503d80600081146119de576040519150601f19603f3d011682016040523d82523d6000602084013e6119e3565b606091505b5050905080611a345760405162461bcd60e51b815260206004820181905260248201527f4661696c656420746f2073656e6420726f79616c747920687562206f776e657260448201526064016108c1565b505b6000611a40610ff5565b6001600160a01b03164760405160006040518083038185875af1925050503d8060008114611a8a576040519150601f19603f3d011682016040523d82523d6000602084013e611a8f565b606091505b50509050806111035760405162461bcd60e51b815260206004820152602a60248201527f4661696c656420746f2073656e6420646f6d61696e207061796d656e7420746f604482015269102a26221037bbb732b960b11b60648201526084016108c1565b600080611aff856121fa565b90506000611b14611b0f83612424565b612451565b11611b555760405162461bcd60e51b8152602060048201526011602482015270446f6d61696e206e616d6520656d70747960781b60448201526064016108c1565b600e54815110611ba15760405162461bcd60e51b8152602060048201526017602482015276446f6d61696e206e616d6520697320746f6f206c6f6e6760481b60448201526064016108c1565b611bd4611bad82612424565b611bcf604051806040016040528060018152602001601760f91b815250612424565b61252a565b15611c2d5760405162461bcd60e51b815260206004820152602360248201527f54686572652073686f756c64206265206e6f20646f747320696e20746865206e604482015262616d6560e81b60648201526084016108c1565b611c5b611c3982612424565b611bcf604051806040016040528060018152602001600160fd1b815250612424565b15611cb65760405162461bcd60e51b815260206004820152602560248201527f54686572652073686f756c64206265206e6f2073706163657320696e20746865604482015264206e616d6560d81b60648201526084016108c1565b60006001600160a01b0316600f82604051611cd191906133bf565b908152604051908190036020019020600201546001600160a01b031614611d465760405162461bcd60e51b8152602060048201526024808201527f446f6d61696e20776974682074686973206e616d6520616c72656164792065786044820152636973747360e01b60648201526084016108c1565b611d5284600c546125c4565b611d866040518060800160405280606081526020016000815260200160006001600160a01b03168152602001606081525090565b818152600c5460208201526001600160a01b03851660408083019190915260608201859052518190600f90611dbc9085906133bf565b90815260200160405180910390206000820151816000019080519060200190611de6929190612d30565b50602082810151600183015560408301516002830180546001600160a01b0319166001600160a01b0390921691909117905560608301518051611e2f9260038501920190612d30565b5050600c5460009081526010602090815260409091208451611e5693509091850190612d30565b506001600160a01b03851660009081526011602052604090208054611e7a90613304565b15159050611ead576001600160a01b03851660009081526011602090815260409091208351611eab92850190612d30565b505b6001600160a01b038516337f6a48f46f419774a1b2d37bbb2e1214ca73c6d3367d4e9ae39c08a9cf99bdd19b84611ee2610793565b604051602001611ef3929190613609565b60408051601f1981840301815290829052611f0d91612ec6565b60405180910390a3600c60008154611f2490613638565b90915550600b8054600090611f3890613638565b90915550600c54611f4b90600190613653565b9695505050505050565b600080611f6183610e25565b9050806001600160a01b0316846001600160a01b03161480611f885750611f8881856117b0565b80611fac5750836001600160a01b0316611fa184610825565b6001600160a01b0316145b949350505050565b826001600160a01b0316611fc782610e25565b6001600160a01b03161461202b5760405162461bcd60e51b815260206004820152602560248201527f4552433732313a207472616e736665722066726f6d20696e636f72726563742060448201526437bbb732b960d91b60648201526084016108c1565b6001600160a01b03821661208d5760405162461bcd60e51b8152602060048201526024808201527f4552433732313a207472616e7366657220746f20746865207a65726f206164646044820152637265737360e01b60648201526084016108c1565b6120988383836126f0565b6120a360008261187c565b6001600160a01b03831660009081526003602052604081208054600192906120cc908490613653565b90915550506001600160a01b03821660009081526003602052604081208054600192906120fa90849061366a565b909155505060008181526002602052604080822080546001600160a01b0319166001600160a01b03868116918217909255915184939187169160008051602061388f83398151915291a4505050565b33612152610ff5565b6001600160a01b031614610ef25760405162461bcd60e51b815260206004820181905260248201527f4f776e61626c653a2063616c6c6572206973206e6f7420746865206f776e657260448201526064016108c1565b600680546001600160a01b038381166001600160a01b0319831681179093556040519116919082907f8be0079c531659141344cd1fd0a4f28419497f9722a3daafe3b4186f6b6457e090600090a35050565b60608160005b815181101561226d5761223282828151811061221e5761221e613682565b01602001516001600160f81b03191661290a565b82828151811061224457612244613682565b60200101906001600160f81b031916908160001a9053508061226581613638565b915050612200565b5092915050565b816001600160a01b0316836001600160a01b031614156122d25760405162461bcd60e51b815260206004820152601960248201527822a9219b99189d1030b8383937bb32903a379031b0b63632b960391b60448201526064016108c1565b6001600160a01b03838116600081815260056020908152604080832094871680845294825291829020805460ff191686151590811790915591519182527f17307eab39ab6107e8899845ad3d59bd9653f200f220920489ca2b5937696c31910160405180910390a3505050565b61234a848484611fb4565b61235684848484612959565b6111035760405162461bcd60e51b81526004016108c190613698565b600061237d82610e25565b905061238b816000846126f0565b61239660008361187c565b6001600160a01b03811660009081526003602052604081208054600192906123bf908490613653565b909155505060008281526002602052604080822080546001600160a01b0319169055518391906001600160a01b0384169060008051602061388f833981519152908390a45050565b6000908152600260205260409020546001600160a01b0316151590565b60408051808201825260008082526020918201528151808301909252825182529182019181019190915290565b600080601f83602001516124659190613653565b8351909150600090612477908361366a565b9050600092505b8082101561252357815160ff1660808110156124a65761249f60018461366a565b9250612510565b60e08160ff1610156124bd5761249f60028461366a565b60f08160ff1610156124d45761249f60038461366a565b60f88160ff1610156124eb5761249f60048461366a565b60fc8160ff1610156125025761249f60058461366a565b61250d60068461366a565b92505b508261251b81613638565b93505061247e565b5050919050565b600080826000015161254e8560000151866020015186600001518760200151612a66565b612558919061366a565b90505b8351602085015161256c919061366a565b811161226d578161257c81613638565b92505082600001516125b38560200151836125979190613653565b86516125a39190613653565b8386600001518760200151612a66565b6125bd919061366a565b905061255b565b6001600160a01b03821661261a5760405162461bcd60e51b815260206004820181905260248201527f4552433732313a206d696e7420746f20746865207a65726f206164647265737360448201526064016108c1565b61262381612407565b1561266f5760405162461bcd60e51b815260206004820152601c60248201527b115490cdcc8c4e881d1bdad95b88185b1c9958591e481b5a5b9d195960221b60448201526064016108c1565b61267b600083836126f0565b6001600160a01b03821660009081526003602052604081208054600192906126a490849061366a565b909155505060008181526002602052604080822080546001600160a01b0319166001600160a01b038616908117909155905183929060008051602061388f833981519152908290a45050565b6001600160a01b038316156109625781600f60106000848152602001908152602001600020604051612722919061344a565b908152604080516020928190038301902060020180546001600160a01b0319166001600160a01b039485161790559184166000908152601190915220805461276990613304565b159050801561278057506001600160a01b03821615155b156127f257600081815260106020526040908190209051600f916127a39161344a565b908152602001604051809103902060000160116000846001600160a01b03166001600160a01b031681526020019081526020016000209080546127e590613304565b6127f0929190612da4565b505b6128e46128b7600f6010600085815260200190815260200160002060405161281a919061344a565b908152604051908190036020019020805461283490613304565b80601f016020809104026020016040519081016040528092919081815260200182805461286090613304565b80156128ad5780601f10612882576101008083540402835291602001916128ad565b820191906000526020600020905b81548152906001019060200180831161289057829003601f168201915b5050505050612424565b6001600160a01b038516600090815260116020526040902080546128df919061283490613304565b612b87565b15610962576001600160a01b038316600090815260116020526040812061096291612cf6565b6000604160f81b6001600160f81b03198316108015906129385750602d60f91b6001600160f81b0319831611155b156129555761294c60f883901c60206136ea565b60f81b92915050565b5090565b60006001600160a01b0384163b15612a5b57604051630a85bd0160e11b81526001600160a01b0385169063150b7a029061299d90339089908890889060040161370f565b602060405180830381600087803b1580156129b757600080fd5b505af19250505080156129e7575060408051601f3d908101601f191682019092526129e491810190613742565b60015b612a41573d808015612a15576040519150601f19603f3d011682016040523d82523d6000602084013e612a1a565b606091505b508051612a395760405162461bcd60e51b81526004016108c190613698565b805181602001fd5b6001600160e01b031916630a85bd0160e11b149050611fac565b506001949350505050565b60008381868511612b725760208511612b205760008515612ab2576001612a8e876020613653565b612a999060086135c8565b612aa4906002613843565b612aae9190613653565b1990505b84518116600087612ac38b8b61366a565b612acd9190613653565b855190915083165b828114612b1257818610612afa57612aed8b8b61366a565b9650505050505050611fac565b85612b0481613638565b965050838651169050612ad5565b859650505050505050611fac565b508383206000905b612b328689613653565b8211612b705785832081811415612b4f5783945050505050611fac565b612b5a60018561366a565b9350508180612b6890613638565b925050612b28565b505b612b7c878761366a565b979650505050505050565b6000612b938383612b9b565b159392505050565b8151815160009190811115612bae575081515b6020808501519084015160005b83811015612c675782518251808214612c37576000196020871015612c1657600184612be8896020613653565b612bf2919061366a565b612bfd9060086135c8565b612c08906002613843565b612c129190613653565b1990505b8181168382168181039114612c3457975061078d9650505050505050565b50505b612c4260208661366a565b9450612c4f60208561366a565b93505050602081612c60919061366a565b9050612bbb565b5084518651611f4b919061384f565b828054612c8290613304565b90600052602060002090601f016020900481019282612ca45760008555612cea565b82601f10612cbd5782800160ff19823516178555612cea565b82800160010185558215612cea579182015b82811115612cea578235825591602001919060010190612ccf565b50612955929150612e1f565b508054612d0290613304565b6000825580601f10612d12575050565b601f0160209004906000526020600020908101906118549190612e1f565b828054612d3c90613304565b90600052602060002090601f016020900481019282612d5e5760008555612cea565b82601f10612d7757805160ff1916838001178555612cea565b82800160010185558215612cea579182015b82811115612cea578251825591602001919060010190612d89565b828054612db090613304565b90600052602060002090601f016020900481019282612dd25760008555612cea565b82601f10612de35780548555612cea565b82800160010185558215612cea57600052602060002091601f016020900482015b82811115612cea578254825591600101919060010190612e04565b5b808211156129555760008155600101612e20565b6001600160e01b03198116811461185457600080fd5b600060208284031215612e5c57600080fd5b8135612e6781612e34565b9392505050565b60005b83811015612e89578181015183820152602001612e71565b838111156111035750506000910152565b60008151808452612eb2816020860160208601612e6e565b601f01601f19169290920160200192915050565b602081526000612e676020830184612e9a565b6001600160a01b0391909116815260200190565b600060208284031215612eff57600080fd5b5035919050565b6001600160a01b038116811461185457600080fd5b60008060408385031215612f2e57600080fd5b8235612f3981612f06565b946020939093013593505050565b634e487b7160e01b600052604160045260246000fd5b604051601f8201601f191681016001600160401b0381118282101715612f8557612f85612f47565b604052919050565b60006001600160401b03821115612fa657612fa6612f47565b50601f01601f191660200190565b6000612fc7612fc284612f8d565b612f5d565b9050828152838383011115612fdb57600080fd5b828260208301376000602084830101529392505050565b600082601f83011261300357600080fd5b612e6783833560208501612fb4565b6000806040838503121561302557600080fd5b82356001600160401b0381111561303b57600080fd5b61304785828601612ff2565b925050602083013561305881612f06565b809150509250929050565b60008060006060848603121561307857600080fd5b833561308381612f06565b9250602084013561309381612f06565b929592945050506040919091013590565b6000602082840312156130b657600080fd5b81356001600160401b038111156130cc57600080fd5b611fac84828501612ff2565b6080815260006130eb6080830187612e9a565b602083018690526001600160a01b03851660408401528281036060840152612b7c8185612e9a565b60006020828403121561312557600080fd5b8135612e6781612f06565b60008083601f84011261314257600080fd5b5081356001600160401b0381111561315957600080fd5b60208301915083602082850101111561317157600080fd5b9250929050565b6000806020838503121561318b57600080fd5b82356001600160401b038111156131a157600080fd5b6131ad85828601613130565b90969095509350505050565b600080604083850312156131cc57600080fd5b82356131d781612f06565b91506020830135801515811461305857600080fd5b6000806000806080858703121561320257600080fd5b843561320d81612f06565b9350602085013561321d81612f06565b92506040850135915060608501356001600160401b0381111561323f57600080fd5b8501601f8101871361325057600080fd5b61325f87823560208401612fb4565b91505092959194509250565b6000806000806040858703121561328157600080fd5b84356001600160401b038082111561329857600080fd5b6132a488838901613130565b909650945060208701359150808211156132bd57600080fd5b506132ca87828801613130565b95989497509550505050565b600080604083850312156132e957600080fd5b82356132f481612f06565b9150602083013561305881612f06565b600181811c9082168061331857607f821691505b6020821081141561333957634e487b7160e01b600052602260045260246000fd5b50919050565b6020808252602e908201527f4552433732313a2063616c6c6572206973206e6f7420746f6b656e206f776e6560408201526d1c881b9bdc88185c1c1c9bdd995960921b606082015260800190565b602080825260189082015277115490cdcc8c4e881a5b9d985b1a59081d1bdad95b88125160421b604082015260600190565b600082516133d1818460208701612e6e565b9190910192915050565b600081546133e881613304565b60018281168015613400576001811461341157613440565b60ff19841687528287019450613440565b8560005260208060002060005b858110156134375781548a82015290840190820161341e565b50505082870194505b5050505092915050565b6000612e6782846133db565b60608152600080855461346881613304565b806060860152608060018084166000811461348a576001811461349e576134cf565b60ff1985168884015260a0880195506134cf565b8a60005260208060002060005b868110156134c65781548b82018701529084019082016134ab565b8a018501975050505b505050505082810360208401526134e68186612e9a565b915050826040830152949350505050565b60006020828403121561350957600080fd5b81516001600160401b0381111561351f57600080fd5b8201601f8101841361353057600080fd5b805161353e612fc282612f8d565b81815285602083850101111561355357600080fd5b613564826020830160208601612e6e565b95945050505050565b634e487b7160e01b600052601160045260246000fd5b6000816135925761359261356d565b506000190190565b600080604083850312156135ad57600080fd5b82516135b881612f06565b6020939093015192949293505050565b60008160001904831182151516156135e2576135e261356d565b500290565b60008261360457634e487b7160e01b600052601260045260246000fd5b500490565b6000835161361b818460208801612e6e565b83519083019061362f818360208801612e6e565b01949350505050565b600060001982141561364c5761364c61356d565b5060010190565b6000828210156136655761366561356d565b500390565b6000821982111561367d5761367d61356d565b500190565b634e487b7160e01b600052603260045260246000fd5b60208082526032908201527f4552433732313a207472616e7366657220746f206e6f6e20455243373231526560408201527131b2b4bb32b91034b6b83632b6b2b73a32b960711b606082015260800190565b600060ff821660ff84168060ff038211156137075761370761356d565b019392505050565b6001600160a01b0385811682528416602082015260408101839052608060608201819052600090611f4b90830184612e9a565b60006020828403121561375457600080fd5b8151612e6781612e34565b600181815b8085111561379a5781600019048211156137805761378061356d565b8085161561378d57918102915b93841c9390800290613764565b509250929050565b6000826137b15750600161078d565b816137be5750600061078d565b81600181146137d457600281146137de576137fa565b600191505061078d565b60ff8411156137ef576137ef61356d565b50506001821b61078d565b5060208310610133831016604e8410600b841016171561381d575081810a61078d565b613827838361375f565b806000190482111561383b5761383b61356d565b029392505050565b6000612e6783836137a2565b60008083128015600160ff1b85018412161561386d5761386d61356d565b6001600160ff1b03840183138116156138885761388861356d565b5050039056feddf252ad1be2c89b69c2b068fc378daa952ba7f163c4a11628f55a4df523b3efa26469706673582212205228bf360424dc9cfa8edc7ab33601d86ff67a66bf2ac37ffcb01cb10003ddc664736f6c63430008090033",
  "linkReferences": {},
  "deployedLinkReferences": {}
}