{
  "_format": "hh-sol-artifact-1",
  "contractName": "KrakenDomainResolver",
  "sourceName": "contracts/KrakenDomainResolver.sol",
  "abi": [
    {
      "anonymous": false,
      "inputs": [
        {
          "indexed": false,
          "internalType": "address",
          "name": "user",
          "type": "address"
        },
        {
          "indexed": false,
          "internalType": "address",
          "name": "tAddr",
          "type": "address"
        }
      ],
      "name": "DeprecatedTldAdded",
      "type": "event"
    },
    {
      "anonymous": false,
      "inputs": [
        {
          "indexed": false,
          "internalType": "address",
          "name": "user",
          "type": "address"
        },
        {
          "indexed": false,
          "internalType": "address",
          "name": "tAddr",
          "type": "address"
        }
      ],
      "name": "DeprecatedTldRemoved",
      "type": "event"
    },
    {
      "anonymous": false,
      "inputs": [
        {
          "indexed": false,
          "internalType": "address",
          "name": "user",
          "type": "address"
        },
        {
          "indexed": false,
          "internalType": "address",
          "name": "fAddr",
          "type": "address"
        }
      ],
      "name": "FactoryAddressAdded",
      "type": "event"
    },
    {
      "anonymous": false,
      "inputs": [
        {
          "indexed": false,
          "internalType": "address",
          "name": "owner",
          "type": "address"
        }
      ],
      "name": "HubAdded",
      "type": "event"
    },
    {
      "anonymous": false,
      "inputs": [
        {
          "indexed": false,
          "internalType": "uint8",
          "name": "version",
          "type": "uint8"
        }
      ],
      "name": "Initialized",
      "type": "event"
    },
    {
      "anonymous": false,
      "inputs": [
        {
          "indexed": true,
          "internalType": "address",
          "name": "previousOwner",
          "type": "address"
        },
        {
          "indexed": true,
          "internalType": "address",
          "name": "newOwner",
          "type": "address"
        }
      ],
      "name": "OwnershipTransferred",
      "type": "event"
    },
    {
      "inputs": [
        {
          "internalType": "address",
          "name": "_deprecatedTldAddress",
          "type": "address"
        }
      ],
      "name": "addDeprecatedTldAddress",
      "outputs": [],
      "stateMutability": "nonpayable",
      "type": "function"
    },
    {
      "inputs": [
        {
          "internalType": "address",
          "name": "_factoryAddress",
          "type": "address"
        }
      ],
      "name": "addFactoryAddress",
      "outputs": [],
      "stateMutability": "nonpayable",
      "type": "function"
    },
    {
      "inputs": [
        {
          "internalType": "address",
          "name": "_hubAddress",
          "type": "address"
        }
      ],
      "name": "addHubAddress",
      "outputs": [],
      "stateMutability": "nonpayable",
      "type": "function"
    },
    {
      "inputs": [
        {
          "internalType": "uint256",
          "name": "",
          "type": "uint256"
        }
      ],
      "name": "factories",
      "outputs": [
        {
          "internalType": "address",
          "name": "",
          "type": "address"
        }
      ],
      "stateMutability": "view",
      "type": "function"
    },
    {
      "inputs": [
        {
          "internalType": "address",
          "name": "_addr",
          "type": "address"
        },
        {
          "internalType": "string",
          "name": "_tld",
          "type": "string"
        }
      ],
      "name": "getDefaultDomain",
      "outputs": [
        {
          "internalType": "string",
          "name": "",
          "type": "string"
        }
      ],
      "stateMutability": "view",
      "type": "function"
    },
    {
      "inputs": [
        {
          "internalType": "address",
          "name": "_addr",
          "type": "address"
        }
      ],
      "name": "getDefaultDomains",
      "outputs": [
        {
          "internalType": "string",
          "name": "",
          "type": "string"
        }
      ],
      "stateMutability": "view",
      "type": "function"
    },
    {
      "inputs": [
        {
          "internalType": "string",
          "name": "_domainName",
          "type": "string"
        },
        {
          "internalType": "string",
          "name": "_tld",
          "type": "string"
        }
      ],
      "name": "getDomainData",
      "outputs": [
        {
          "internalType": "string",
          "name": "",
          "type": "string"
        }
      ],
      "stateMutability": "view",
      "type": "function"
    },
    {
      "inputs": [
        {
          "internalType": "string",
          "name": "_domainName",
          "type": "string"
        },
        {
          "internalType": "string",
          "name": "_tld",
          "type": "string"
        }
      ],
      "name": "getDomainHolder",
      "outputs": [
        {
          "internalType": "address",
          "name": "",
          "type": "address"
        }
      ],
      "stateMutability": "view",
      "type": "function"
    },
    {
      "inputs": [
        {
          "internalType": "string",
          "name": "_domainName",
          "type": "string"
        },
        {
          "internalType": "string",
          "name": "_tld",
          "type": "string"
        }
      ],
      "name": "getDomainTokenUri",
      "outputs": [
        {
          "internalType": "string",
          "name": "",
          "type": "string"
        }
      ],
      "stateMutability": "view",
      "type": "function"
    },
    {
      "inputs": [],
      "name": "getFactoriesArray",
      "outputs": [
        {
          "internalType": "address[]",
          "name": "",
          "type": "address[]"
        }
      ],
      "stateMutability": "view",
      "type": "function"
    },
    {
      "inputs": [
        {
          "internalType": "address",
          "name": "_addr",
          "type": "address"
        }
      ],
      "name": "getFirstDefaultDomain",
      "outputs": [
        {
          "internalType": "string",
          "name": "",
          "type": "string"
        }
      ],
      "stateMutability": "view",
      "type": "function"
    },
    {
      "inputs": [
        {
          "internalType": "string",
          "name": "_tldName",
          "type": "string"
        }
      ],
      "name": "getTldAddress",
      "outputs": [
        {
          "internalType": "address",
          "name": "",
          "type": "address"
        }
      ],
      "stateMutability": "view",
      "type": "function"
    },
    {
      "inputs": [
        {
          "internalType": "string",
          "name": "_tldName",
          "type": "string"
        }
      ],
      "name": "getTldFactoryAddress",
      "outputs": [
        {
          "internalType": "address",
          "name": "",
          "type": "address"
        }
      ],
      "stateMutability": "view",
      "type": "function"
    },
    {
      "inputs": [],
      "name": "getTlds",
      "outputs": [
        {
          "internalType": "string",
          "name": "",
          "type": "string"
        }
      ],
      "stateMutability": "view",
      "type": "function"
    },
    {
      "inputs": [],
      "name": "initialize",
      "outputs": [],
      "stateMutability": "nonpayable",
      "type": "function"
    },
    {
      "inputs": [
        {
          "internalType": "address",
          "name": "",
          "type": "address"
        }
      ],
      "name": "isTldDeprecated",
      "outputs": [
        {
          "internalType": "bool",
          "name": "",
          "type": "bool"
        }
      ],
      "stateMutability": "view",
      "type": "function"
    },
    {
      "inputs": [],
      "name": "owner",
      "outputs": [
        {
          "internalType": "address",
          "name": "",
          "type": "address"
        }
      ],
      "stateMutability": "view",
      "type": "function"
    },
    {
      "inputs": [
        {
          "internalType": "address",
          "name": "_deprecatedTldAddress",
          "type": "address"
        }
      ],
      "name": "removeDeprecatedTldAddress",
      "outputs": [],
      "stateMutability": "nonpayable",
      "type": "function"
    },
    {
      "inputs": [
        {
          "internalType": "uint256",
          "name": "_addrIndex",
          "type": "uint256"
        }
      ],
      "name": "removeFactoryAddress",
      "outputs": [],
      "stateMutability": "nonpayable",
      "type": "function"
    },
    {
      "inputs": [],
      "name": "renounceOwnership",
      "outputs": [],
      "stateMutability": "nonpayable",
      "type": "function"
    },
    {
      "inputs": [
        {
          "internalType": "address",
          "name": "newOwner",
          "type": "address"
        }
      ],
      "name": "transferOwnership",
      "outputs": [],
      "stateMutability": "nonpayable",
      "type": "function"
    }
  ],
  "bytecode": "0x608060405234801561001057600080fd5b506123e0806100206000396000f3fe608060405234801561001057600080fd5b50600436106101075760003560e01c80630d2272001461010c578063124b356b1461012157806318c0c6951461013457806357951ea8146101475780635b20cf391461016557806362169a771461018557806363d5eee814610198578063672383c4146101cb5780636d3437fb146101de5780636e94cac9146101f1578063715018a61461020457806371c033fc1461020c5780638129fc1c1461021f5780638da5cb5b14610227578063924e8a6b1461022f5780639599232814610242578063b9f24d7b14610255578063cc1b2d0214610268578063d14061511461027b578063f267a10c14610290578063f2fde38b146102a3575b600080fd5b61011f61011a366004611cc3565b6102b6565b005b61011f61012f366004611cc3565b610371565b61011f610142366004611cc3565b6103e3565b61014f61045d565b60405161015c9190611d10565b60405180910390f35b610178610173366004611d8b565b610671565b60405161015c9190611dcc565b610178610193366004611d8b565b6107cf565b6101bb6101a6366004611cc3565b60656020526000908152604090205460ff1681565b604051901515815260200161015c565b6101786101d9366004611de0565b6108f7565b61014f6101ec366004611cc3565b610921565b61014f6101ff366004611df9565b610be8565b61011f610e09565b61014f61021a366004611cc3565b610e1d565b61011f6110b4565b6101786111c9565b61011f61023d366004611de0565b6111d8565b61014f610250366004611e64565b611290565b61014f610263366004611df9565b611428565b610178610276366004611df9565b6115a6565b610283611722565b60405161015c9190611eb8565b61011f61029e366004611cc3565b611784565b61011f6102b1366004611cc3565b6117d3565b6102be6111c9565b6001600160a01b0316336001600160a01b03161461031c5760405162461bcd60e51b815260206004820152601660248201527537b7363c9037bbb732b91031b0b71030b23210343ab160511b60448201526064015b60405180910390fd5b606780546001600160a01b0319166001600160a01b0383161790557fc115b67214986e53036fb5fc3f99168082f41405e51ce3062224c7f3d2cdf00a336040516103669190611dcc565b60405180910390a150565b610379611849565b6001600160a01b0381166000908152606560205260409020805460ff191660011790557ff847dbe1168b3644f67f33bf127627062cb7a1777ac983fa83e44edb57989b226103c43390565b604080516001600160a01b039283168152918416602083015201610366565b6103eb611849565b606680546001810182556000919091527f46501879b8ca8525e8c2fd519e2fbfcfa2ebea26501294aa02cbfcfb12e943540180546001600160a01b0319166001600160a01b0383161790557f5928fa36137089d200461b1b8492840afb1c250ed4dc142dc2bc16f9ca407489336103c4565b606654606090819060005b818110156106695760006066828154811061048557610485611f05565b60009182526020822001546040805163ebe7321760e01b815290516001600160a01b039092169263ebe7321792600480840193829003018186803b1580156104cc57600080fd5b505afa1580156104e0573d6000803e3d6000fd5b505050506040513d6000823e601f3d908101601f191682016040526105089190810190611fc4565b905060005b815181101561065f57600082828151811061052a5761052a611f05565b6020026020010151905060006066858154811061054957610549611f05565b60009182526020909120015460405163399122d560e01b81526001600160a01b039091169063399122d590610582908590600401611d10565b60206040518083038186803b15801561059a57600080fd5b505afa1580156105ae573d6000803e3d6000fd5b505050506040513d601f19601f820116820180604052508101906105d29190612086565b6001600160a01b03811660009081526065602052604090205490915060ff1661064c57868261060b836001600160a01b03166014611905565b60405160200161061c9291906120a3565b60408051601f198184030181529082905261063a92916020016120ed565b60405160208183030381529060405296505b50508061065890612132565b905061050d565b5050600101610468565b509092915050565b606654600090815b818110156107c25760006066828154811061069657610696611f05565b60009182526020909120015460405163399122d560e01b81526001600160a01b039091169063399122d5906106d1908990899060040161214d565b60206040518083038186803b1580156106e957600080fd5b505afa1580156106fd573d6000803e3d6000fd5b505050506040513d601f19601f820116820180604052508101906107219190612086565b90506001600160a01b0381161580159061075457506001600160a01b03811660009081526065602052604090205460ff16155b1561078c576066828154811061076c5761076c611f05565b6000918252602090912001546001600160a01b031693506107c992505050565b6001600160a01b03811660009081526065602052604090205460ff16156107b957600093505050506107c9565b50600101610679565b5060009150505b92915050565b606654600090815b818110156107c2576000606682815481106107f4576107f4611f05565b60009182526020909120015460405163399122d560e01b81526001600160a01b039091169063399122d59061082f908990899060040161214d565b60206040518083038186803b15801561084757600080fd5b505afa15801561085b573d6000803e3d6000fd5b505050506040513d601f19601f8201168201806040525081019061087f9190612086565b90506001600160a01b038116158015906108b257506001600160a01b03811660009081526065602052604090205460ff16155b156108c15792506107c9915050565b6001600160a01b03811660009081526065602052604090205460ff16156108ee57600093505050506107c9565b506001016107d7565b6066818154811061090757600080fd5b6000918252602090912001546001600160a01b0316905081565b606654606090819060005b81811015610bdf5760006066828154811061094957610949611f05565b60009182526020822001546040805163ebe7321760e01b815290516001600160a01b039092169263ebe7321792600480840193829003018186803b15801561099057600080fd5b505afa1580156109a4573d6000803e3d6000fd5b505050506040513d6000823e601f3d908101601f191682016040526109cc9190810190611fc4565b905060005b8151811015610bd55760008282815181106109ee576109ee611f05565b60200260200101519050600060668581548110610a0d57610a0d611f05565b60009182526020909120015460405163399122d560e01b81526001600160a01b039091169063399122d590610a46908590600401611d10565b60206040518083038186803b158015610a5e57600080fd5b505afa158015610a72573d6000803e3d6000fd5b505050506040513d601f19601f82011682018060405250810190610a969190612086565b90506000816001600160a01b03166362ac7a848b6040518263ffffffff1660e01b8152600401610ac69190611dcc565b60006040518083038186803b158015610ade57600080fd5b505afa158015610af2573d6000803e3d6000fd5b505050506040513d6000823e601f3d908101601f19168201604052610b1a919081019061217c565b90506000610b2f610b2a83611aa0565b611acd565b118015610b5557506001600160a01b03821660009081526065602052604090205460ff16155b15610bc15760018551610b6891906121b0565b841415610b9a57878184604051602001610b84939291906121c7565b6040516020818303038152906040529750610bc1565b878184604051602001610baf9392919061220a565b60405160208183030381529060405297505b50505080610bce90612132565b90506109d1565b505060010161092c565b50909392505050565b60665460609060005b81811015610dec57600060668281548110610c0e57610c0e611f05565b60009182526020909120015460405163399122d560e01b81526001600160a01b039091169063399122d590610c49908990899060040161214d565b60206040518083038186803b158015610c6157600080fd5b505afa158015610c75573d6000803e3d6000fd5b505050506040513d601f19601f82011682018060405250810190610c999190612086565b90506001600160a01b03811615801590610ccc57506001600160a01b03811660009081526065602052604090205460ff16155b15610de357604051632644923560e01b81526000906001600160a01b03831690632644923590610d02908c908c9060040161214d565b60006040518083038186803b158015610d1a57600080fd5b505afa158015610d2e573d6000803e3d6000fd5b505050506040513d6000823e601f3d908101601f19168201604052610d569190810190612259565b505060405163c87b56dd60e01b8152600481018290529092506001600160a01b038416915063c87b56dd9060240160006040518083038186803b158015610d9c57600080fd5b505afa158015610db0573d6000803e3d6000fd5b505050506040513d6000823e601f3d908101601f19168201604052610dd8919081019061217c565b945050505050610e01565b50600101610bf1565b50604051806020016040528060008152509150505b949350505050565b610e11611ba6565b610e1b6000611c05565b565b60665460609060005b8181101561109d57600060668281548110610e4357610e43611f05565b60009182526020822001546040805163ebe7321760e01b815290516001600160a01b039092169263ebe7321792600480840193829003018186803b158015610e8a57600080fd5b505afa158015610e9e573d6000803e3d6000fd5b505050506040513d6000823e601f3d908101601f19168201604052610ec69190810190611fc4565b905060005b8151811015611093576000828281518110610ee857610ee8611f05565b60200260200101519050600060668581548110610f0757610f07611f05565b60009182526020909120015460405163399122d560e01b81526001600160a01b039091169063399122d590610f40908590600401611d10565b60206040518083038186803b158015610f5857600080fd5b505afa158015610f6c573d6000803e3d6000fd5b505050506040513d601f19601f82011682018060405250810190610f909190612086565b90506000816001600160a01b03166362ac7a848a6040518263ffffffff1660e01b8152600401610fc09190611dcc565b60006040518083038186803b158015610fd857600080fd5b505afa158015610fec573d6000803e3d6000fd5b505050506040513d6000823e601f3d908101601f19168201604052611014919081019061217c565b90506000611024610b2a83611aa0565b11801561104a57506001600160a01b03821660009081526065602052604090205460ff16155b1561107f5780836040516020016110629291906120ed565b604051602081830303815290604052975050505050505050919050565b5050508061108c90612132565b9050610ecb565b5050600101610e26565b505060408051602081019091526000815292915050565b600054610100900460ff16158080156110d45750600054600160ff909116105b806110ee5750303b1580156110ee575060005460ff166001145b6111515760405162461bcd60e51b815260206004820152602e60248201527f496e697469616c697a61626c653a20636f6e747261637420697320616c72656160448201526d191e481a5b9a5d1a585b1a5e995960921b6064820152608401610313565b6000805460ff191660011790558015611174576000805461ff0019166101001790555b61117c611c57565b611184611c7e565b80156111c6576000805461ff0019169055604051600181527f7f26b83ff96e1f2b6a682f133852f6798a09c465da95921460cefb384740249890602001610366565b50565b6033546001600160a01b031690565b6111e0611849565b606680546111f0906001906121b0565b8154811061120057611200611f05565b600091825260209091200154606680546001600160a01b03909216918390811061122c5761122c611f05565b9060005260206000200160006101000a8154816001600160a01b0302191690836001600160a01b03160217905550606680548061126b5761126b6122d9565b600082815260209020810160001990810180546001600160a01b031916905501905550565b60665460609060005b8181101561140c576000606682815481106112b6576112b6611f05565b60009182526020909120015460405163399122d560e01b81526001600160a01b039091169063399122d5906112f1908990899060040161214d565b60206040518083038186803b15801561130957600080fd5b505afa15801561131d573d6000803e3d6000fd5b505050506040513d601f19601f820116820180604052508101906113419190612086565b90506001600160a01b0381161580159061137457506001600160a01b03811660009081526065602052604090205460ff16155b15611403576040516318ab1ea160e21b81526001600160a01b038216906362ac7a84906113a5908a90600401611dcc565b60006040518083038186803b1580156113bd57600080fd5b505afa1580156113d1573d6000803e3d6000fd5b505050506040513d6000823e601f3d908101601f191682016040526113f9919081019061217c565b9350505050611421565b50600101611299565b50604051806020016040528060008152509150505b9392505050565b60665460609060005b81811015610dec5760006066828154811061144e5761144e611f05565b60009182526020909120015460405163399122d560e01b81526001600160a01b039091169063399122d590611489908990899060040161214d565b60206040518083038186803b1580156114a157600080fd5b505afa1580156114b5573d6000803e3d6000fd5b505050506040513d601f19601f820116820180604052508101906114d99190612086565b90506001600160a01b0381161580159061150c57506001600160a01b03811660009081526065602052604090205460ff16155b1561159d57604051637afdfb4f60e01b81526001600160a01b03821690637afdfb4f9061153f908b908b9060040161214d565b60006040518083038186803b15801561155757600080fd5b505afa15801561156b573d6000803e3d6000fd5b505050506040513d6000823e601f3d908101601f19168201604052611593919081019061217c565b9350505050610e01565b50600101611431565b606654600090815b81811015611715576000606682815481106115cb576115cb611f05565b60009182526020909120015460405163399122d560e01b81526001600160a01b039091169063399122d590611606908990899060040161214d565b60206040518083038186803b15801561161e57600080fd5b505afa158015611632573d6000803e3d6000fd5b505050506040513d601f19601f820116820180604052508101906116569190612086565b90506001600160a01b0381161580159061168957506001600160a01b03811660009081526065602052604090205460ff16155b1561170c5760405163bfcdd7c360e01b81526001600160a01b0382169063bfcdd7c3906116bc908b908b9060040161214d565b60206040518083038186803b1580156116d457600080fd5b505afa1580156116e8573d6000803e3d6000fd5b505050506040513d601f19601f820116820180604052508101906115939190612086565b506001016115ae565b5060009695505050505050565b6060606680548060200260200160405190810160405280929190818152602001828054801561177a57602002820191906000526020600020905b81546001600160a01b0316815260019091019060200180831161175c575b5050505050905090565b61178c611849565b6001600160a01b0381166000908152606560205260409020805460ff191690557f9bb0227be14fac452f137fab7d0f8e1fb0441159a8b26f843c02355e4340eaa9336103c4565b6117db611ba6565b6001600160a01b0381166118405760405162461bcd60e51b815260206004820152602660248201527f4f776e61626c653a206e6577206f776e657220697320746865207a65726f206160448201526564647265737360d01b6064820152608401610313565b6111c681611c05565b6067546001600160a01b0316634533c347336040518263ffffffff1660e01b81526004016118779190611dcc565b602060405180830381600087803b15801561189157600080fd5b505af11580156118a5573d6000803e3d6000fd5b505050506040513d601f19601f820116820180604052508101906118c991906122ef565b610e1b5760405162461bcd60e51b815260206004820152600d60248201526c2737ba10243ab11020b236b4b760991b6044820152606401610313565b60606000611914836002612311565b61191f906002612330565b6001600160401b0381111561193657611936611f1b565b6040519080825280601f01601f191660200182016040528015611960576020820181803683370190505b509050600360fc1b8160008151811061197b5761197b611f05565b60200101906001600160f81b031916908160001a905350600f60fb1b816001815181106119aa576119aa611f05565b60200101906001600160f81b031916908160001a90535060006119ce846002612311565b6119d9906001612330565b90505b6001811115611a51576f181899199a1a9b1b9c1cb0b131b232b360811b85600f1660108110611a0d57611a0d611f05565b1a60f81b828281518110611a2357611a23611f05565b60200101906001600160f81b031916908160001a90535060049490941c93611a4a81612348565b90506119dc565b5083156114215760405162461bcd60e51b815260206004820181905260248201527f537472696e67733a20686578206c656e67746820696e73756666696369656e746044820152606401610313565b60408051808201825260008082526020918201528151808301909252825182529182019181019190915290565b600080601f8360200151611ae191906121b0565b8351909150600090611af39083612330565b9050600092505b80821015611b9f57815160ff166080811015611b2257611b1b600184612330565b9250611b8c565b60e08160ff161015611b3957611b1b600284612330565b60f08160ff161015611b5057611b1b600384612330565b60f88160ff161015611b6757611b1b600484612330565b60fc8160ff161015611b7e57611b1b600584612330565b611b89600684612330565b92505b5082611b9781612132565b935050611afa565b5050919050565b33611baf6111c9565b6001600160a01b031614610e1b5760405162461bcd60e51b815260206004820181905260248201527f4f776e61626c653a2063616c6c6572206973206e6f7420746865206f776e65726044820152606401610313565b603380546001600160a01b038381166001600160a01b0319831681179093556040519116919082907f8be0079c531659141344cd1fd0a4f28419497f9722a3daafe3b4186f6b6457e090600090a35050565b600054610100900460ff16610e1b5760405162461bcd60e51b81526004016103139061235f565b600054610100900460ff16611ca55760405162461bcd60e51b81526004016103139061235f565b610e1b33611c05565b6001600160a01b03811681146111c657600080fd5b600060208284031215611cd557600080fd5b813561142181611cae565b60005b83811015611cfb578181015183820152602001611ce3565b83811115611d0a576000848401525b50505050565b6020815260008251806020840152611d2f816040850160208701611ce0565b601f01601f19169190910160400192915050565b60008083601f840112611d5557600080fd5b5081356001600160401b03811115611d6c57600080fd5b602083019150836020828501011115611d8457600080fd5b9250929050565b60008060208385031215611d9e57600080fd5b82356001600160401b03811115611db457600080fd5b611dc085828601611d43565b90969095509350505050565b6001600160a01b0391909116815260200190565b600060208284031215611df257600080fd5b5035919050565b60008060008060408587031215611e0f57600080fd5b84356001600160401b0380821115611e2657600080fd5b611e3288838901611d43565b90965094506020870135915080821115611e4b57600080fd5b50611e5887828801611d43565b95989497509550505050565b600080600060408486031215611e7957600080fd5b8335611e8481611cae565b925060208401356001600160401b03811115611e9f57600080fd5b611eab86828701611d43565b9497909650939450505050565b6020808252825182820181905260009190848201906040850190845b81811015611ef95783516001600160a01b031683529284019291840191600101611ed4565b50909695505050505050565b634e487b7160e01b600052603260045260246000fd5b634e487b7160e01b600052604160045260246000fd5b604051601f8201601f191681016001600160401b0381118282101715611f5957611f59611f1b565b604052919050565b600082601f830112611f7257600080fd5b81516001600160401b03811115611f8b57611f8b611f1b565b611f9e601f8201601f1916602001611f31565b818152846020838601011115611fb357600080fd5b610e01826020830160208701611ce0565b60006020808385031215611fd757600080fd5b82516001600160401b0380821115611fee57600080fd5b818501915085601f83011261200257600080fd5b81518181111561201457612014611f1b565b8060051b612023858201611f31565b918252838101850191858101908984111561203d57600080fd5b86860192505b838310156120795782518581111561205b5760008081fd5b6120698b89838a0101611f61565b8352509186019190860190612043565b9998505050505050505050565b60006020828403121561209857600080fd5b815161142181611cae565b600083516120b5818460208801611ce0565b600b60fa1b90830190815283516120d3816001840160208801611ce0565b600560f91b60019290910191820152600201949350505050565b600083516120ff818460208801611ce0565b835190830190612113818360208801611ce0565b01949350505050565b634e487b7160e01b600052601160045260246000fd5b60006000198214156121465761214661211c565b5060010190565b60208152816020820152818360408301376000818301604090810191909152601f909201601f19160101919050565b60006020828403121561218e57600080fd5b81516001600160401b038111156121a457600080fd5b610e0184828501611f61565b6000828210156121c2576121c261211c565b500390565b600084516121d9818460208901611ce0565b8451908301906121ed818360208901611ce0565b8451910190612200818360208801611ce0565b0195945050505050565b6000845161221c818460208901611ce0565b845190830190612230818360208901611ce0565b8451910190612243818360208801611ce0565b600160fd1b910190815260010195945050505050565b6000806000806080858703121561226f57600080fd5b84516001600160401b038082111561228657600080fd5b61229288838901611f61565b955060208701519450604087015191506122ab82611cae565b6060870151919350808211156122c057600080fd5b506122cd87828801611f61565b91505092959194509250565b634e487b7160e01b600052603160045260246000fd5b60006020828403121561230157600080fd5b8151801515811461142157600080fd5b600081600019048311821515161561232b5761232b61211c565b500290565b600082198211156123435761234361211c565b500190565b6000816123575761235761211c565b506000190190565b6020808252602b908201527f496e697469616c697a61626c653a20636f6e7472616374206973206e6f74206960408201526a6e697469616c697a696e6760a81b60608201526080019056fea2646970667358221220d5138722665411a3bd7b6d8de85ceccb84f43f433f2d233dad8fdd28e314863464736f6c63430008090033",
  "linkReferences": {},
  "deployedLinkReferences": {}
}