{
  "_format": "hh-sol-artifact-1",
  "contractName": "KrakenDomainSBT",
  "sourceName": "contracts/KrakenDomainSBT.sol",
  "abi": [
    {
      "inputs": [
        {
          "internalType": "string",
          "name": "_name",
          "type": "string"
        },
        {
          "internalType": "string",
          "name": "_symbol",
          "type": "string"
        },
        {
          "internalType": "address",
          "name": "_tldOwner",
          "type": "address"
        },
        {
          "internalType": "uint256",
          "name": "_domainPrice",
          "type": "uint256"
        },
        {
          "internalType": "bool",
          "name": "_buyingEnabled",
          "type": "bool"
        },
        {
          "internalType": "address",
          "name": "_factoryAddress",
          "type": "address"
        },
        {
          "internalType": "address",
          "name": "_metadataAddress",
          "type": "address"
        }
      ],
      "stateMutability": "nonpayable",
      "type": "constructor"
    },
    {
      "anonymous": false,
      "inputs": [
        {
          "indexed": true,
          "internalType": "address",
          "name": "_to",
          "type": "address"
        },
        {
          "indexed": true,
          "internalType": "uint256",
          "name": "_tokenId",
          "type": "uint256"
        }
      ],
      "name": "Attest",
      "type": "event"
    },
    {
      "anonymous": false,
      "inputs": [
        {
          "indexed": true,
          "internalType": "address",
          "name": "user",
          "type": "address"
        }
      ],
      "name": "DataChanged",
      "type": "event"
    },
    {
      "anonymous": false,
      "inputs": [
        {
          "indexed": true,
          "internalType": "address",
          "name": "user",
          "type": "address"
        },
        {
          "indexed": false,
          "internalType": "string",
          "name": "defaultDomain",
          "type": "string"
        }
      ],
      "name": "DefaultDomainChanged",
      "type": "event"
    },
    {
      "anonymous": false,
      "inputs": [
        {
          "indexed": true,
          "internalType": "address",
          "name": "user",
          "type": "address"
        },
        {
          "indexed": false,
          "internalType": "string",
          "name": "fullDomainName",
          "type": "string"
        }
      ],
      "name": "DomainBurned",
      "type": "event"
    },
    {
      "anonymous": false,
      "inputs": [
        {
          "indexed": true,
          "internalType": "address",
          "name": "user",
          "type": "address"
        },
        {
          "indexed": false,
          "internalType": "bool",
          "name": "domainBuyingToggle",
          "type": "bool"
        }
      ],
      "name": "DomainBuyingToggle",
      "type": "event"
    },
    {
      "anonymous": false,
      "inputs": [
        {
          "indexed": true,
          "internalType": "address",
          "name": "user",
          "type": "address"
        },
        {
          "indexed": true,
          "internalType": "address",
          "name": "owner",
          "type": "address"
        },
        {
          "indexed": false,
          "internalType": "string",
          "name": "fullDomainName",
          "type": "string"
        }
      ],
      "name": "DomainCreated",
      "type": "event"
    },
    {
      "anonymous": false,
      "inputs": [
        {
          "indexed": false,
          "internalType": "address",
          "name": "user",
          "type": "address"
        }
      ],
      "name": "MintingDisabledForever",
      "type": "event"
    },
    {
      "anonymous": false,
      "inputs": [
        {
          "indexed": true,
          "internalType": "address",
          "name": "previousOwner",
          "type": "address"
        },
        {
          "indexed": true,
          "internalType": "address",
          "name": "newOwner",
          "type": "address"
        }
      ],
      "name": "OwnershipTransferred",
      "type": "event"
    },
    {
      "anonymous": false,
      "inputs": [
        {
          "indexed": true,
          "internalType": "address",
          "name": "user",
          "type": "address"
        },
        {
          "indexed": false,
          "internalType": "uint256",
          "name": "referralFee",
          "type": "uint256"
        }
      ],
      "name": "ReferralFeeChanged",
      "type": "event"
    },
    {
      "anonymous": false,
      "inputs": [
        {
          "indexed": true,
          "internalType": "address",
          "name": "_to",
          "type": "address"
        },
        {
          "indexed": true,
          "internalType": "uint256",
          "name": "_tokenId",
          "type": "uint256"
        }
      ],
      "name": "Revoke",
      "type": "event"
    },
    {
      "anonymous": false,
      "inputs": [
        {
          "indexed": true,
          "internalType": "address",
          "name": "user",
          "type": "address"
        },
        {
          "indexed": false,
          "internalType": "uint256",
          "name": "tldPrice",
          "type": "uint256"
        }
      ],
      "name": "TldPriceChanged",
      "type": "event"
    },
    {
      "anonymous": false,
      "inputs": [
        {
          "indexed": true,
          "internalType": "address",
          "name": "user",
          "type": "address"
        },
        {
          "indexed": false,
          "internalType": "uint256",
          "name": "tldRoyalty",
          "type": "uint256"
        }
      ],
      "name": "TldRoyaltyChanged",
      "type": "event"
    },
    {
      "inputs": [
        {
          "internalType": "string",
          "name": "_domainName",
          "type": "string"
        }
      ],
      "name": "burn",
      "outputs": [],
      "stateMutability": "nonpayable",
      "type": "function"
    },
    {
      "inputs": [],
      "name": "buyingDisabledForever",
      "outputs": [
        {
          "internalType": "bool",
          "name": "",
          "type": "bool"
        }
      ],
      "stateMutability": "view",
      "type": "function"
    },
    {
      "inputs": [],
      "name": "buyingEnabled",
      "outputs": [
        {
          "internalType": "bool",
          "name": "",
          "type": "bool"
        }
      ],
      "stateMutability": "view",
      "type": "function"
    },
    {
      "inputs": [
        {
          "internalType": "address",
          "name": "_metadataAddress",
          "type": "address"
        }
      ],
      "name": "changeMetadataAddress",
      "outputs": [],
      "stateMutability": "nonpayable",
      "type": "function"
    },
    {
      "inputs": [
        {
          "internalType": "address",
          "name": "_minter",
          "type": "address"
        }
      ],
      "name": "changeMinter",
      "outputs": [],
      "stateMutability": "nonpayable",
      "type": "function"
    },
    {
      "inputs": [
        {
          "internalType": "uint256",
          "name": "_maxLength",
          "type": "uint256"
        }
      ],
      "name": "changeNameMaxLength",
      "outputs": [],
      "stateMutability": "nonpayable",
      "type": "function"
    },
    {
      "inputs": [
        {
          "internalType": "uint256",
          "name": "_price",
          "type": "uint256"
        }
      ],
      "name": "changePrice",
      "outputs": [],
      "stateMutability": "nonpayable",
      "type": "function"
    },
    {
      "inputs": [
        {
          "internalType": "address",
          "name": "",
          "type": "address"
        }
      ],
      "name": "defaultNames",
      "outputs": [
        {
          "internalType": "string",
          "name": "",
          "type": "string"
        }
      ],
      "stateMutability": "view",
      "type": "function"
    },
    {
      "inputs": [],
      "name": "disableBuyingForever",
      "outputs": [],
      "stateMutability": "nonpayable",
      "type": "function"
    },
    {
      "inputs": [
        {
          "internalType": "uint256",
          "name": "",
          "type": "uint256"
        }
      ],
      "name": "domainIdsNames",
      "outputs": [
        {
          "internalType": "string",
          "name": "",
          "type": "string"
        }
      ],
      "stateMutability": "view",
      "type": "function"
    },
    {
      "inputs": [
        {
          "internalType": "string",
          "name": "",
          "type": "string"
        }
      ],
      "name": "domains",
      "outputs": [
        {
          "internalType": "string",
          "name": "name",
          "type": "string"
        },
        {
          "internalType": "uint256",
          "name": "tokenId",
          "type": "uint256"
        },
        {
          "internalType": "address",
          "name": "holder",
          "type": "address"
        },
        {
          "internalType": "string",
          "name": "data",
          "type": "string"
        }
      ],
      "stateMutability": "view",
      "type": "function"
    },
    {
      "inputs": [
        {
          "internalType": "string",
          "name": "_domainName",
          "type": "string"
        },
        {
          "internalType": "string",
          "name": "_data",
          "type": "string"
        }
      ],
      "name": "editData",
      "outputs": [],
      "stateMutability": "nonpayable",
      "type": "function"
    },
    {
      "inputs": [
        {
          "internalType": "string",
          "name": "_domainName",
          "type": "string"
        }
      ],
      "name": "editDefaultDomain",
      "outputs": [],
      "stateMutability": "nonpayable",
      "type": "function"
    },
    {
      "inputs": [],
      "name": "factoryAddress",
      "outputs": [
        {
          "internalType": "address",
          "name": "",
          "type": "address"
        }
      ],
      "stateMutability": "view",
      "type": "function"
    },
    {
      "inputs": [],
      "name": "freezeMetadata",
      "outputs": [],
      "stateMutability": "nonpayable",
      "type": "function"
    },
    {
      "inputs": [
        {
          "internalType": "string",
          "name": "_domainName",
          "type": "string"
        }
      ],
      "name": "getDomainData",
      "outputs": [
        {
          "internalType": "string",
          "name": "",
          "type": "string"
        }
      ],
      "stateMutability": "view",
      "type": "function"
    },
    {
      "inputs": [
        {
          "internalType": "string",
          "name": "_domainName",
          "type": "string"
        }
      ],
      "name": "getDomainHolder",
      "outputs": [
        {
          "internalType": "address",
          "name": "",
          "type": "address"
        }
      ],
      "stateMutability": "view",
      "type": "function"
    },
    {
      "inputs": [
        {
          "internalType": "string",
          "name": "_domainName",
          "type": "string"
        }
      ],
      "name": "getDomainTokenId",
      "outputs": [
        {
          "internalType": "uint256",
          "name": "",
          "type": "uint256"
        }
      ],
      "stateMutability": "view",
      "type": "function"
    },
    {
      "inputs": [],
      "name": "getOwner",
      "outputs": [
        {
          "internalType": "address",
          "name": "",
          "type": "address"
        }
      ],
      "stateMutability": "view",
      "type": "function"
    },
    {
      "inputs": [],
      "name": "idCounter",
      "outputs": [
        {
          "internalType": "uint256",
          "name": "",
          "type": "uint256"
        }
      ],
      "stateMutability": "view",
      "type": "function"
    },
    {
      "inputs": [],
      "name": "metadataAddress",
      "outputs": [
        {
          "internalType": "address",
          "name": "",
          "type": "address"
        }
      ],
      "stateMutability": "view",
      "type": "function"
    },
    {
      "inputs": [],
      "name": "metadataFrozen",
      "outputs": [
        {
          "internalType": "bool",
          "name": "",
          "type": "bool"
        }
      ],
      "stateMutability": "view",
      "type": "function"
    },
    {
      "inputs": [
        {
          "internalType": "string",
          "name": "_domainName",
          "type": "string"
        },
        {
          "internalType": "address",
          "name": "_domainHolder",
          "type": "address"
        }
      ],
      "name": "mint",
      "outputs": [
        {
          "internalType": "uint256",
          "name": "",
          "type": "uint256"
        }
      ],
      "stateMutability": "payable",
      "type": "function"
    },
    {
      "inputs": [],
      "name": "minter",
      "outputs": [
        {
          "internalType": "address",
          "name": "",
          "type": "address"
        }
      ],
      "stateMutability": "view",
      "type": "function"
    },
    {
      "inputs": [],
      "name": "name",
      "outputs": [
        {
          "internalType": "string",
          "name": "",
          "type": "string"
        }
      ],
      "stateMutability": "view",
      "type": "function"
    },
    {
      "inputs": [],
      "name": "nameMaxLength",
      "outputs": [
        {
          "internalType": "uint256",
          "name": "",
          "type": "uint256"
        }
      ],
      "stateMutability": "view",
      "type": "function"
    },
    {
      "inputs": [],
      "name": "owner",
      "outputs": [
        {
          "internalType": "address",
          "name": "",
          "type": "address"
        }
      ],
      "stateMutability": "view",
      "type": "function"
    },
    {
      "inputs": [
        {
          "internalType": "uint256",
          "name": "tokenId",
          "type": "uint256"
        }
      ],
      "name": "ownerOf",
      "outputs": [
        {
          "internalType": "address",
          "name": "",
          "type": "address"
        }
      ],
      "stateMutability": "view",
      "type": "function"
    },
    {
      "inputs": [],
      "name": "price",
      "outputs": [
        {
          "internalType": "uint256",
          "name": "",
          "type": "uint256"
        }
      ],
      "stateMutability": "view",
      "type": "function"
    },
    {
      "inputs": [],
      "name": "renounceOwnership",
      "outputs": [],
      "stateMutability": "nonpayable",
      "type": "function"
    },
    {
      "inputs": [
        {
          "internalType": "bytes4",
          "name": "interfaceId",
          "type": "bytes4"
        }
      ],
      "name": "supportsInterface",
      "outputs": [
        {
          "internalType": "bool",
          "name": "",
          "type": "bool"
        }
      ],
      "stateMutability": "view",
      "type": "function"
    },
    {
      "inputs": [],
      "name": "symbol",
      "outputs": [
        {
          "internalType": "string",
          "name": "",
          "type": "string"
        }
      ],
      "stateMutability": "view",
      "type": "function"
    },
    {
      "inputs": [],
      "name": "toggleBuyingDomains",
      "outputs": [],
      "stateMutability": "nonpayable",
      "type": "function"
    },
    {
      "inputs": [
        {
          "internalType": "uint256",
          "name": "_tokenId",
          "type": "uint256"
        }
      ],
      "name": "tokenURI",
      "outputs": [
        {
          "internalType": "string",
          "name": "",
          "type": "string"
        }
      ],
      "stateMutability": "view",
      "type": "function"
    },
    {
      "inputs": [],
      "name": "totalSupply",
      "outputs": [
        {
          "internalType": "uint256",
          "name": "",
          "type": "uint256"
        }
      ],
      "stateMutability": "view",
      "type": "function"
    },
    {
      "inputs": [
        {
          "internalType": "address",
          "name": "newOwner",
          "type": "address"
        }
      ],
      "name": "transferOwnership",
      "outputs": [],
      "stateMutability": "nonpayable",
      "type": "function"
    }
  ],
  "bytecode": "0x60806040526008805462ffffff60a01b191690556001600a55608c600c553480156200002a57600080fd5b5060405162002ed638038062002ed68339810160408190526200004d91620003c8565b8651879087906200006690600090602085019062000238565b5080516200007c90600190602084019062000238565b50505062000099620000936200010160201b60201c565b62000105565b6001600555600b84905560088054600680546001600160a01b038086166001600160a01b031992831617909255908516861515600160a01b02919091166001600160a81b031990921691909117179055620000f48562000157565b50505050505050620004c9565b3390565b600480546001600160a01b038381166001600160a01b0319831681179093556040519116919082907f8be0079c531659141344cd1fd0a4f28419497f9722a3daafe3b4186f6b6457e090600090a35050565b62000161620001da565b6001600160a01b038116620001cc5760405162461bcd60e51b815260206004820152602660248201527f4f776e61626c653a206e6577206f776e657220697320746865207a65726f206160448201526564647265737360d01b60648201526084015b60405180910390fd5b620001d78162000105565b50565b6004546001600160a01b03163314620002365760405162461bcd60e51b815260206004820181905260248201527f4f776e61626c653a2063616c6c6572206973206e6f7420746865206f776e65726044820152606401620001c3565b565b82805462000246906200048c565b90600052602060002090601f0160209004810192826200026a5760008555620002b5565b82601f106200028557805160ff1916838001178555620002b5565b82800160010185558215620002b5579182015b82811115620002b557825182559160200191906001019062000298565b50620002c3929150620002c7565b5090565b5b80821115620002c35760008155600101620002c8565b634e487b7160e01b600052604160045260246000fd5b600082601f8301126200030657600080fd5b81516001600160401b0380821115620003235762000323620002de565b604051601f8301601f19908116603f011681019082821181831017156200034e576200034e620002de565b816040528381526020925086838588010111156200036b57600080fd5b600091505b838210156200038f578582018301518183018401529082019062000370565b83821115620003a15760008385830101525b9695505050505050565b80516001600160a01b0381168114620003c357600080fd5b919050565b600080600080600080600060e0888a031215620003e457600080fd5b87516001600160401b0380821115620003fc57600080fd5b6200040a8b838c01620002f4565b985060208a01519150808211156200042157600080fd5b50620004308a828b01620002f4565b9650506200044160408901620003ab565b945060608801519350608088015180151581146200045e57600080fd5b92506200046e60a08901620003ab565b91506200047e60c08901620003ab565b905092959891949750929550565b600181811c90821680620004a157607f821691505b60208210811415620004c357634e487b7160e01b600052602260045260246000fd5b50919050565b6129fd80620004d96000396000f3fe60806040526004361061019f5760003560e01c806301ffc9a7146101a457806306fdde03146101d957806307546172146101fb57806318160ddd146102285780631c351a9d1461024c578063264492351461025f5780632c4d4d181461028f5780633a516d17146102b15780635dedf3b5146102d157806362ac7a84146102f15780636352211e146103115780636eb3500d14610331578063715018a6146103515780637afdfb4f14610366578063893d20e8146103865780638da5cb5b1461039b5780638ed2fe91146103b057806395d89b41146103d15780639669a962146103e6578063966dae0e146104065780639f03469114610426578063a035b1fe1461043c578063a2b40d1914610452578063ba833c4b14610472578063bf70e90d14610492578063bfcdd7c3146104a7578063c87b56dd146104c7578063d111515d146104e7578063d2b525d3146104fc578063d85451ff1461051c578063dafa1d2d1461053d578063db6bf9201461055d578063dbd843b51461057d578063eb08ab2814610592578063f2fde38b146105a8578063fb3cc6c2146105c8575b600080fd5b3480156101b057600080fd5b506101c46101bf366004612221565b6105e9565b60405190151581526020015b60405180910390f35b3480156101e557600080fd5b506101ee61063b565b6040516101d091906122aa565b34801561020757600080fd5b5060075461021b906001600160a01b031681565b6040516101d091906122bd565b34801561023457600080fd5b5061023e60095481565b6040519081526020016101d0565b61023e61025a3660046123a9565b6106cd565b34801561026b57600080fd5b5061027f61027a3660046123fa565b61088f565b6040516101d0949392919061242e565b34801561029b57600080fd5b506102af6102aa366004612474565b6109e0565b005b3480156102bd57600080fd5b506102af6102cc366004612474565b610a0a565b3480156102dd57600080fd5b506102af6102ec366004612491565b610a9d565b3480156102fd57600080fd5b506101ee61030c366004612474565b610aaa565b34801561031d57600080fd5b5061021b61032c366004612491565b610b44565b34801561033d57600080fd5b5060065461021b906001600160a01b031681565b34801561035d57600080fd5b506102af610ba8565b34801561037257600080fd5b506101ee6103813660046124f2565b610bbc565b34801561039257600080fd5b5061021b610cae565b3480156103a757600080fd5b5061021b610cbd565b3480156103bc57600080fd5b506008546101c490600160a01b900460ff1681565b3480156103dd57600080fd5b506101ee610ccc565b3480156103f257600080fd5b5061023e6104013660046124f2565b610cdb565b34801561041257600080fd5b5060085461021b906001600160a01b031681565b34801561043257600080fd5b5061023e600c5481565b34801561044857600080fd5b5061023e600b5481565b34801561045e57600080fd5b506102af61046d366004612491565b610d45565b34801561047e57600080fd5b506102af61048d366004612533565b610d8a565b34801561049e57600080fd5b506102af610eb1565b3480156104b357600080fd5b5061021b6104c23660046124f2565b610f1c565b3480156104d357600080fd5b506101ee6104e2366004612491565b610f90565b3480156104f357600080fd5b506102af61104e565b34801561050857600080fd5b506101ee610517366004612491565b61106b565b34801561052857600080fd5b506008546101c490600160a81b900460ff1681565b34801561054957600080fd5b506102af6105583660046124f2565b611084565b34801561056957600080fd5b506102af6105783660046124f2565b6112d5565b34801561058957600080fd5b506102af6113fa565b34801561059e57600080fd5b5061023e600a5481565b3480156105b457600080fd5b506102af6105c3366004612474565b611454565b3480156105d457600080fd5b506008546101c490600160b01b900460ff1681565b60006001600160e01b03198216635b5e139f60e01b148061061a57506001600160e01b031982166331a9108f60e11b145b8061063557506301ffc9a760e01b6001600160e01b03198316145b92915050565b60606000805461064a9061259e565b80601f01602080910402602001604051908101604052809291908181526020018280546106769061259e565b80156106c35780601f10610698576101008083540402835291602001916106c3565b820191906000526020600020905b8154815290600101906020018083116106a657829003601f168201915b5050505050905090565b6000600260055414156107275760405162461bcd60e51b815260206004820152601f60248201527f5265656e7472616e637947756172643a207265656e7472616e742063616c6c0060448201526064015b60405180910390fd5b6002600555600854600160a81b900460ff16156107865760405162461bcd60e51b815260206004820152601f60248201527f446f6d61696e206d696e74696e672064697361626c656420666f726576657200604482015260640161071e565b600854600160a01b900460ff16806107b657506107a1610cbd565b6001600160a01b0316336001600160a01b0316145b806107d457506007546001600160a01b0316336001600160a01b0316145b61081a5760405162461bcd60e51b8152602060048201526017602482015276109d5e5a5b99c8191bdb585a5b9cc8191a5cd8589b1959604a1b604482015260640161071e565b600b543410156108605760405162461bcd60e51b815260206004820152601160248201527056616c75652062656c6f7720707269636560781b604482015260640161071e565b610869346114cd565b6108838383604051806020016040528060008152506116dc565b60016005559392505050565b8051602081830181018051600d825292820191909301209152805481906108b59061259e565b80601f01602080910402602001604051908101604052809291908181526020018280546108e19061259e565b801561092e5780601f106109035761010080835404028352916020019161092e565b820191906000526020600020905b81548152906001019060200180831161091157829003601f168201915b5050505060018301546002840154600385018054949592946001600160a01b0390921693509061095d9061259e565b80601f01602080910402602001604051908101604052809291908181526020018280546109899061259e565b80156109d65780601f106109ab576101008083540402835291602001916109d6565b820191906000526020600020905b8154815290600101906020018083116109b957829003601f168201915b5050505050905084565b6109e8611b4f565b600780546001600160a01b0319166001600160a01b0392909216919091179055565b610a12611b4f565b600854600160b01b900460ff1615610a7b5760405162461bcd60e51b815260206004820152602660248201527f43616e6e6f74206368616e6765206d65746164617461206164647265737320616044820152656e796d6f726560d01b606482015260840161071e565b600680546001600160a01b0319166001600160a01b0392909216919091179055565b610aa5611b4f565b600c55565b600f6020526000908152604090208054610ac39061259e565b80601f0160208091040260200160405190810160405280929190818152602001828054610aef9061259e565b8015610b3c5780601f10610b1157610100808354040283529160200191610b3c565b820191906000526020600020905b815481529060010190602001808311610b1f57829003601f168201915b505050505081565b6000818152600260205260408120546001600160a01b0316806106355760405162461bcd60e51b815260206004820152601c60248201527b1bdddb995c93d98e881d1bdad95b88191bd95cdb89dd08195e1a5cdd60221b604482015260640161071e565b610bb0611b4f565b610bba6000611bae565b565b6060600d610bff84848080601f016020809104026020016040519081016040528093929190818152602001838380828437600092019190915250611c0092505050565b604051610c0c91906125d9565b90815260200160405180910390206003018054610c289061259e565b80601f0160208091040260200160405190810160405280929190818152602001828054610c549061259e565b8015610ca15780601f10610c7657610100808354040283529160200191610ca1565b820191906000526020600020905b815481529060010190602001808311610c8457829003601f168201915b5050505050905092915050565b6000610cb8610cbd565b905090565b6004546001600160a01b031690565b60606001805461064a9061259e565b6000600d610d1e84848080601f016020809104026020016040519081016040528093929190818152602001838380828437600092019190915250611c0092505050565b604051610d2b91906125d9565b908152602001604051809103902060010154905092915050565b610d4d611b4f565b600b81905560405181815233907fee635c8a0d26ec216072a8c63e35b6ae1a6c900a63c37c014e4ebaac518610419060200160405180910390a250565b6000610dcb85858080601f016020809104026020016040519081016040528093929190818152602001838380828437600092019190915250611c0092505050565b9050336001600160a01b0316600d82604051610de791906125d9565b908152604051908190036020019020600201546001600160a01b031614610e4e5760405162461bcd60e51b815260206004820152601b60248201527a13db9b1e48191bdb585a5b881a1bdb19195c8818d85b8819591a5d602a1b604482015260640161071e565b8282600d83604051610e6091906125d9565b90815260200160405180910390206003019190610e7e9291906120de565b5060405133907f5f5a32e7aa0e6d5ba247a155a472ba8f212ee1885baaf457683f3f5dae89480190600090a25050505050565b610eb9611b4f565b6008805460ff600160a01b808304821615810260ff60a01b199093169290921792839055604051919092049091161515815233907f8e6cbfe6ffa62410f48c7f382a4560f2b634197f39f7ba9b666914af6674cfdb9060200160405180910390a2565b6000600d610f5f84848080601f016020809104026020016040519081016040528093929190818152602001838380828437600092019190915250611c0092505050565b604051610f6c91906125d9565b908152604051908190036020019020600201546001600160a01b0316905092915050565b6006546000828152600e60205260409081902090516060926001600160a01b0316916348189f1291600d91610fc491612664565b908152604051908190036020019020610fdb61063b565b856040518463ffffffff1660e01b8152600401610ffa93929190612670565b60006040518083038186803b15801561101257600080fd5b505afa158015611026573d6000803e3d6000fd5b505050506040513d6000823e601f3d908101601f191682016040526106359190810190612711565b611056611b4f565b6008805460ff60b01b1916600160b01b179055565b600e6020526000908152604090208054610ac39061259e565b60006110c583838080601f016020809104026020016040519081016040528093929190818152602001838380828437600092019190915250611c0092505050565b9050336001600160a01b0316600d826040516110e191906125d9565b908152604051908190036020019020600201546001600160a01b03161480611121575061110c610cbd565b6001600160a01b0316336001600160a01b0316145b6111785760405162461bcd60e51b815260206004820152602260248201527f596f7520646f206e6f74206f776e207468652073656c656374656420646f6d6160448201526134b760f11b606482015260840161071e565b6000600d8260405161118a91906125d9565b9081526020016040518091039020600101549050600e600082815260200190815260200160002060006111bd919061215e565b600d826040516111cd91906125d9565b90815260405190819003602001902060006111e8828261215e565b6000600183018190556002830180546001600160a01b031916905561121190600384019061215e565b505081516020830120600f6000336001600160a01b03166001600160a01b0316815260200190815260200160002060405161124c9190612664565b6040518091039020141561127257336000908152600f602052604081206112729161215e565b61127b81611c7a565b60096000815461128a9061279d565b90915550336001600160a01b03167fa37475cf96c0b9779814af0b62cf67583091c685221d6a2c12369240539cb9ef836040516112c791906122aa565b60405180910390a250505050565b600061131683838080601f016020809104026020016040519081016040528093929190818152602001838380828437600092019190915250611c0092505050565b9050336001600160a01b0316600d8260405161133291906125d9565b908152604051908190036020019020600201546001600160a01b0316146113935760405162461bcd60e51b81526020600482015260156024820152742cb7ba903237903737ba1037bbb7103237b6b0b4b760591b604482015260640161071e565b336000908152600f6020908152604090912082516113b392840190612198565b50336001600160a01b03167f068caa4b2fe151c4db5ef003b9da9f85e1f84c0fa8eaf77f66a095b19998b988826040516113ed91906122aa565b60405180910390a2505050565b611402611b4f565b6008805460ff60a81b1916600160a81b1790557f6d74cc13fa7ed2a0177961820c3be5913f7b4cf15397d50b80357e80ec4ea78a61143d3390565b60405161144a91906122bd565b60405180910390a1565b61145c611b4f565b6001600160a01b0381166114c15760405162461bcd60e51b815260206004820152602660248201527f4f776e61626c653a206e6577206f776e657220697320746865207a65726f206160448201526564647265737360d01b606482015260840161071e565b6114ca81611bae565b50565b60085460408051631299372d60e31b8152815160009384936001600160a01b03909116926394c9b9689260048083019392829003018186803b15801561151257600080fd5b505afa158015611526573d6000803e3d6000fd5b505050506040513d601f19601f8201168201806040525081019061154a91906127b4565b9150915060008111801561155e5750603281105b156116195760006001600160a01b038316606461157b84876127e2565b6115859190612801565b604051600081818185875af1925050503d80600081146115c1576040519150601f19603f3d011682016040523d82523d6000602084013e6115c6565b606091505b50509050806116175760405162461bcd60e51b815260206004820181905260248201527f4661696c656420746f2073656e6420726f79616c747920687562206f776e6572604482015260640161071e565b505b6000611623610cbd565b6001600160a01b03164760405160006040518083038185875af1925050503d806000811461166d576040519150601f19603f3d011682016040523d82523d6000602084013e611672565b606091505b50509050806116d65760405162461bcd60e51b815260206004820152602a60248201527f4661696c656420746f2073656e6420646f6d61696e207061796d656e7420746f604482015269102a26221037bbb732b960b11b606482015260840161071e565b50505050565b6000806116e885611c00565b905060006116fd6116f883611cf2565b611d1f565b1161173e5760405162461bcd60e51b8152602060048201526011602482015270446f6d61696e206e616d6520656d70747960781b604482015260640161071e565b600c5481511061178a5760405162461bcd60e51b8152602060048201526017602482015276446f6d61696e206e616d6520697320746f6f206c6f6e6760481b604482015260640161071e565b6117bd61179682611cf2565b6117b8604051806040016040528060018152602001601760f91b815250611cf2565b611df8565b156118165760405162461bcd60e51b815260206004820152602360248201527f54686572652073686f756c64206265206e6f20646f747320696e20746865206e604482015262616d6560e81b606482015260840161071e565b61184461182282611cf2565b6117b8604051806040016040528060018152602001600160fd1b815250611cf2565b1561189f5760405162461bcd60e51b815260206004820152602560248201527f54686572652073686f756c64206265206e6f2073706163657320696e20746865604482015264206e616d6560d81b606482015260840161071e565b60006001600160a01b0316600d826040516118ba91906125d9565b908152604051908190036020019020600201546001600160a01b03161461192f5760405162461bcd60e51b8152602060048201526024808201527f446f6d61696e20776974682074686973206e616d6520616c72656164792065786044820152636973747360e01b606482015260840161071e565b61194b84600a5460405180602001604052806000815250611e92565b506119806040518060800160405280606081526020016000815260200160006001600160a01b03168152602001606081525090565b818152600a5460208201526001600160a01b03851660408083019190915260608201859052518190600d906119b69085906125d9565b908152602001604051809103902060008201518160000190805190602001906119e0929190612198565b50602082810151600183015560408301516002830180546001600160a01b0319166001600160a01b0390921691909117905560608301518051611a299260038501920190612198565b5050600a546000908152600e602090815260409091208451611a5093509091850190612198565b506001600160a01b0385166000908152600f602052604090208054611a749061259e565b15159050611aa7576001600160a01b0385166000908152600f602090815260409091208351611aa592850190612198565b505b6001600160a01b038516337f6a48f46f419774a1b2d37bbb2e1214ca73c6d3367d4e9ae39c08a9cf99bdd19b84611adc61063b565b604051602001611aed929190612823565b60408051601f1981840301815290829052611b07916122aa565b60405180910390a3600a60008154611b1e90612852565b9091555060098054600090611b3290612852565b90915550600a54611b459060019061286d565b9695505050505050565b33611b58610cbd565b6001600160a01b031614610bba5760405162461bcd60e51b815260206004820181905260248201527f4f776e61626c653a2063616c6c6572206973206e6f7420746865206f776e6572604482015260640161071e565b600480546001600160a01b038381166001600160a01b0319831681179093556040519116919082907f8be0079c531659141344cd1fd0a4f28419497f9722a3daafe3b4186f6b6457e090600090a35050565b60608160005b8151811015611c7357611c38828281518110611c2457611c24612884565b01602001516001600160f81b031916611f6c565b828281518110611c4a57611c4a612884565b60200101906001600160f81b031916908160001a90535080611c6b81612852565b915050611c06565b5092915050565b6000611c8582610b44565b600083815260026020908152604080832080546001600160a01b031916905560039091528120919250611cb8919061215e565b60405182906001600160a01b038316907fec9ab91322523c899ede7830ec9bfc992b5981cdcc27b91162fb23de5791117b90600090a35050565b60408051808201825260008082526020918201528151808301909252825182529182019181019190915290565b600080601f8360200151611d33919061286d565b8351909150600090611d45908361289a565b9050600092505b80821015611df157815160ff166080811015611d7457611d6d60018461289a565b9250611dde565b60e08160ff161015611d8b57611d6d60028461289a565b60f08160ff161015611da257611d6d60038461289a565b60f88160ff161015611db957611d6d60048461289a565b60fc8160ff161015611dd057611d6d60058461289a565b611ddb60068461289a565b92505b5082611de981612852565b935050611d4c565b5050919050565b6000808260000151611e1c8560000151866020015186600001518760200151611fbb565b611e26919061289a565b90505b83516020850151611e3a919061289a565b8111611c735781611e4a81612852565b9250508260000151611e81856020015183611e65919061286d565b8651611e71919061286d565b8386600001518760200151611fbb565b611e8b919061289a565b9050611e29565b6000828152600260205260408120546001600160a01b031615611eee5760405162461bcd60e51b81526020600482015260146024820152736d696e743a20746f6b656e49442065786973747360601b604482015260640161071e565b600083815260026020908152604080832080546001600160a01b0319166001600160a01b038916179055600382529091208351611f2d92850190612198565b5060405183906001600160a01b038616907fe9274a84b19e9428826de6bae8c48329354f8f0e73f771b97cae2d9dccd45a2790600090a3509092915050565b6000604160f81b6001600160f81b0319831610801590611f9a5750602d60f91b6001600160f81b0319831611155b15611fb757611fae60f883901c60206128b2565b60f81b92915050565b5090565b600083818685116120c757602085116120755760008515612007576001611fe387602061286d565b611fee9060086127e2565b611ff99060026129bb565b612003919061286d565b1990505b845181166000876120188b8b61289a565b612022919061286d565b855190915083165b8281146120675781861061204f576120428b8b61289a565b96505050505050506120d6565b8561205981612852565b96505083865116905061202a565b8596505050505050506120d6565b508383206000905b612087868961286d565b82116120c557858320818114156120a457839450505050506120d6565b6120af60018561289a565b93505081806120bd90612852565b92505061207d565b505b6120d1878761289a565b925050505b949350505050565b8280546120ea9061259e565b90600052602060002090601f01602090048101928261210c5760008555612152565b82601f106121255782800160ff19823516178555612152565b82800160010185558215612152579182015b82811115612152578235825591602001919060010190612137565b50611fb792915061220c565b50805461216a9061259e565b6000825580601f1061217a575050565b601f0160209004906000526020600020908101906114ca919061220c565b8280546121a49061259e565b90600052602060002090601f0160209004810192826121c65760008555612152565b82601f106121df57805160ff1916838001178555612152565b82800160010185558215612152579182015b828111156121525782518255916020019190600101906121f1565b5b80821115611fb7576000815560010161220d565b60006020828403121561223357600080fd5b81356001600160e01b03198116811461224b57600080fd5b9392505050565b60005b8381101561226d578181015183820152602001612255565b838111156116d65750506000910152565b60008151808452612296816020860160208601612252565b601f01601f19169290920160200192915050565b60208152600061224b602083018461227e565b6001600160a01b0391909116815260200190565b634e487b7160e01b600052604160045260246000fd5b604051601f8201601f191681016001600160401b038111828210171561230f5761230f6122d1565b604052919050565b60006001600160401b03821115612330576123306122d1565b50601f01601f191660200190565b600082601f83011261234f57600080fd5b813561236261235d82612317565b6122e7565b81815284602083860101111561237757600080fd5b816020850160208301376000918101602001919091529392505050565b6001600160a01b03811681146114ca57600080fd5b600080604083850312156123bc57600080fd5b82356001600160401b038111156123d257600080fd5b6123de8582860161233e565b92505060208301356123ef81612394565b809150509250929050565b60006020828403121561240c57600080fd5b81356001600160401b0381111561242257600080fd5b6120d68482850161233e565b608081526000612441608083018761227e565b602083018690526001600160a01b03851660408401528281036060840152612469818561227e565b979650505050505050565b60006020828403121561248657600080fd5b813561224b81612394565b6000602082840312156124a357600080fd5b5035919050565b60008083601f8401126124bc57600080fd5b5081356001600160401b038111156124d357600080fd5b6020830191508360208285010111156124eb57600080fd5b9250929050565b6000806020838503121561250557600080fd5b82356001600160401b0381111561251b57600080fd5b612527858286016124aa565b90969095509350505050565b6000806000806040858703121561254957600080fd5b84356001600160401b038082111561256057600080fd5b61256c888389016124aa565b9096509450602087013591508082111561258557600080fd5b50612592878288016124aa565b95989497509550505050565b600181811c908216806125b257607f821691505b602082108114156125d357634e487b7160e01b600052602260045260246000fd5b50919050565b600082516125eb818460208701612252565b9190910192915050565b600081546126028161259e565b6001828116801561261a576001811461262b5761265a565b60ff1984168752828701945061265a565b8560005260208060002060005b858110156126515781548a820152908401908201612638565b50505082870194505b5050505092915050565b600061224b82846125f5565b6060815260008085546126828161259e565b80606086015260806001808416600081146126a457600181146126b8576126e9565b60ff1985168884015260a0880195506126e9565b8a60005260208060002060005b868110156126e05781548b82018701529084019082016126c5565b8a018501975050505b50505050508281036020840152612700818661227e565b915050826040830152949350505050565b60006020828403121561272357600080fd5b81516001600160401b0381111561273957600080fd5b8201601f8101841361274a57600080fd5b805161275861235d82612317565b81815285602083850101111561276d57600080fd5b61277e826020830160208601612252565b95945050505050565b634e487b7160e01b600052601160045260246000fd5b6000816127ac576127ac612787565b506000190190565b600080604083850312156127c757600080fd5b82516127d281612394565b6020939093015192949293505050565b60008160001904831182151516156127fc576127fc612787565b500290565b60008261281e57634e487b7160e01b600052601260045260246000fd5b500490565b60008351612835818460208801612252565b835190830190612849818360208801612252565b01949350505050565b600060001982141561286657612866612787565b5060010190565b60008282101561287f5761287f612787565b500390565b634e487b7160e01b600052603260045260246000fd5b600082198211156128ad576128ad612787565b500190565b600060ff821660ff84168060ff038211156128cf576128cf612787565b019392505050565b600181815b808511156129125781600019048211156128f8576128f8612787565b8085161561290557918102915b93841c93908002906128dc565b509250929050565b60008261292957506001610635565b8161293657506000610635565b816001811461294c576002811461295657612972565b6001915050610635565b60ff84111561296757612967612787565b50506001821b610635565b5060208310610133831016604e8410600b8410161715612995575081810a610635565b61299f83836128d7565b80600019048211156129b3576129b3612787565b029392505050565b600061224b838361291a56fea2646970667358221220fa71f653fbd20168f91a5aeec661e030c925bfcfff3dae73eb29fb014521c1d764736f6c63430008090033",
  "linkReferences": {},
  "deployedLinkReferences": {}
}